:100000000C942A000C9447000C9447000C94470071
:100010000C9447000C9447000C9447000C94E8148F
:100020000C941B150C94B5140C9447000C944700C9
:100030000C9447000C9447000C9447000C94470024
:100040000C9447000C9447000C9447000C94470014
:100050000C94470011241FBECFE5D8E0DEBFCDBF12
:1000600010E0A0E6B0E0E8E8FFE202C005900D92E3
:10007000A837B107D9F710E0A8E7B0E001C01D929A
:10008000A938B107E1F70E94F90D0C94C2170C943E
:100090000000EF92FF920F931F937B018C0120E0F1
:1000A00030E040E05FE40E94490388238CF0C801FF
:1000B000B70120E030E040E05FE40E94C1010E940F
:1000C000A9039B01AC01205030404040504806C07D
:1000D000C801B7010E94A9039B01AC01B901CA0183
:1000E0001F910F91FF90EF900895A0E0B0E0EBE733
:1000F000F0E00C948B17DC012B01FA019C919230FB
:1001000008F439C1EB018881823008F433C194309E
:1001100069F4843009F02FC111969C91119789815F
:10012000981709F428C1A0E6B0E025C1843009F48D
:1001300021C18230A9F4923009F01DC19A01AD01AC
:1001400088E0EA010990AE01E90109929E0181501F
:10015000C1F7E201898111969C918923818308C1AD
:10016000923009F407C112962D903C901397EB0141
:100170008A819B811496AD90BD90CD90DC901797AD
:10018000EC80FD800E811F819101281B390BB90184
:1001900037FF04C066277727621B730B6032710537
:1001A0000CF061C0121613066CF537014801062EDB
:1001B00004C096948794779467940A94D2F721E0C8
:1001C00030E040E050E004C0220F331F441F551FB1
:1001D0006A95D2F721503040404050402E213F21B7
:1001E00040235123211531054105510521F021E01E
:1001F00030E040E050E079018A01E628F72808293C
:1002000019293CC0232BD1F1260E371E350146019A
:10021000062E04C096948794779467940A94D2F734
:1002200021E030E040E050E004C0220F331F441FC3
:10023000551F6A95D2F721503040404050402A2146
:100240003B214C215D21211531054105510521F04E
:1002500021E030E040E050E059016A01A628B728CB
:10026000C828D9280BC0821593052CF01C01AA249C
:10027000BB24650103C0EE24FF24870111969C91E5
:10028000D20111968C91981709F445C0992339F041
:10029000A80197012A193B094C095D0906C0A6016E
:1002A00095012E193F09400B510B57FD08C01182D3
:1002B0003382228224833583468357831DC081E0A5
:1002C00081833382228288279927DC01821B930B4A
:1002D000A40BB50B84839583A683B7830DC0220F2F
:1002E000331F441F551F24833583468357838281E0
:1002F000938101979383828324813581468157813D
:10030000DA01C9010197A109B1098F5F9F4FAF4F72
:10031000BF4328F30BC0918333822282EA0CFB1C7B
:100320000C1D1D1DE482F5820683178383E0808304
:10033000248135814681578157FF1AC0C901AA27F8
:1003400097FDA095BA2F81709070A070B0705695EF
:10035000479537952795822B932BA42BB52B848318
:100360009583A683B7838281938101969383828349
:10037000DF0101C0D201CD01CDB7DEB7E2E10C94BF
:10038000A717A0E2B0E0E7ECF1E00C9497176983BF
:100390007A838B839C832D833E834F835887E9E048
:1003A000EE2EF12CEC0EFD1ECE010196B7010E943F
:1003B000D2048E010F5E1F4FCE010596B8010E9438
:1003C000D2048A8991E089278A8BC701B801AE01DE
:1003D000475E5F4F0E9475000E94FD03A096E6E015
:1003E0000C94B317A0E2B0E0E8EFF1E00C9497179B
:1003F00069837A838B839C832D833E834F835887C5
:10040000F9E0EF2EF12CEC0EFD1ECE010196B701A6
:100410000E94D2048E010F5E1F4FCE010596B801D7
:100420000E94D204C701B801AE01475E5F4F0E942F
:1004300075000E94FD03A096E6E00C94B317A0E2BD
:10044000B0E0E5E2F2E00C948B1769837A838B834A
:100450009C832D833E834F835887CE010196BE0136
:10046000675F7F4F0E94D204CE010596BE016F5E8A
:100470007F4F0E94D2049985923088F0898982301A
:10048000C8F0943019F4823051F404C0843029F457
:10049000923081F480E690E0C6C0923049F420E0CA
:1004A0009A858A89981321E02A87CE010996BBC0D4
:1004B000823049F420E09A858A89981321E02A8BBA
:1004C000CE014196B0C02D843E844F8458886D88FB
:1004D0007E888F88988CEE24FF248701AA24BB2471
:1004E000650140E050E060E070E0E0E0F0E0C10174
:1004F00081709070892BE9F0E60CF71C081D191D1E
:100500009A01AB012A0D3B1D4C1D5D1D80E090E062
:10051000A0E0B0E0E614F7040805190520F481E036
:1005200090E0A0E0B0E0BA01A901480F591F6A1F8E
:100530007B1FAA0CBB1CCC1CDD1C97FE08C081E0F5
:1005400090E0A0E0B0E0A82AB92ACA2ADB2A3196B6
:10055000E032F10549F0660C771C881C991C569412
:10056000479437942794C3CFFA85EA892B893C892D
:100570008B859C85280F391F2E5F3F4F17C0CA01FE
:1005800081709070892B61F016950795F794E79428
:1005900080E090E0A0E0B0E8E82AF92A0A2B1B2BC3
:1005A00076956795579547952F5F3F4F77FDE7CF36
:1005B0000CC0440F551F661F771F17FD4160EE0CDE
:1005C000FF1C001F111F21503040403090E05907A0
:1005D00090E0690790E4790760F32B8F3C8FDB0193
:1005E000CA018F779070A070B07080349105A1051A
:1005F000B10561F447FD0AC0E114F10401051105DC
:1006000029F0405C5F4F6F4F7F4F40781A8EFE1786
:1006100011F081E08A8F4D8F5E8F6F8F78A383E01A
:10062000898FCE0149960E94FD03A096E2E10C94C9
:10063000A717A8E1B0E0EFE1F3E00C949717698306
:100640007A838B839C832D833E834F83588789E0F5
:10065000E82EF12CEC0EFD1ECE010196B7010E9492
:10066000D2048E010F5E1F4FCE010596B8010E9485
:10067000D2048985823040F08989823028F0C70110
:10068000B8010E944A0501C08FEF6896E6E00C941D
:10069000B317A8E1B0E0EFE4F3E00C949717698397
:1006A0007A838B839C832D833E834F83588789E095
:1006B000E82EF12CEC0EFD1ECE010196B7010E9432
:1006C000D2048E010F5E1F4FCE010596B8010E9425
:1006D000D2048985823040F08989823028F0C701B0
:1006E000B8010E944A0501C08FEF6896E6E00C94BD
:1006F000B317A8E1B0E0EFE7F3E00C949717698334
:100700007A838B839C832D833E834F83588789E034
:10071000E82EF12CEC0EFD1ECE010196B7010E94D1
:10072000D2048E010F5E1F4FCE010596B8010E94C4
:10073000D2048985823040F08989823028F0C7014F
:10074000B8010E944A0501C081E06896E6E00C9479
:10075000B317ACE0B0E0EFEAF3E00C949B176983C9
:100760007A838B839C83CE010196BE016B5F7F4FA2
:100770000E94D2048D81823061F1823050F1843048
:1007800021F48E81882351F12EC02F81388537FDC9
:1007900020C06E812F3131051CF06623F9F023C093
:1007A0008EE190E0821B930B29853A854B855C8511
:1007B00004C056954795379527958A95D2F76623B5
:1007C000B1F050954095309521953F4F4F4F5F4F79
:1007D0000EC020E030E040E050E009C02FEF3FEFD6
:1007E0004FEF5FE704C020E030E040E050E8B9019F
:1007F000CA012C96E2E00C94B717DF92EF92FF92B9
:100800000F931F93FC01E480F58006811781D1804E
:100810008081823048F480E090E0A0E1B0E0E82AF6
:10082000F92A0A2B1B2BA5C0843009F49FC0823003
:1008300021F4EE24FF24870105C0E114F104010531
:10084000110519F4E0E0F0E096C0628173819FEF3A
:10085000623879070CF05BC022E83FEF261B370BAC
:100860002A3131052CF020E030E040E050E02AC091
:10087000B801A701022E04C0769567955795479554
:100880000A94D2F781E090E0A0E0B0E004C0880FC5
:10089000991FAA1FBB1F2A95D2F70197A109B10979
:1008A0008E219F21A023B1230097A105B10521F03E
:1008B00081E090E0A0E0B0E09A01AB01282B392B59
:1008C0004A2B5B2BDA01C9018F779070A070B07052
:1008D00080349105A105B10539F427FF09C0205CDA
:1008E0003F4F4F4F5F4F04C0215C3F4F4F4F5F4F13
:1008F000E0E0F0E02030A0E03A07A0E04A07A0E402
:100900005A0710F0E1E0F0E079018A0127C0603871
:10091000710564F5FB01E158FF4FD801C7018F77DE
:100920009070A070B07080349105A105B10539F4C4
:10093000E7FE0DC080E490E0A0E0B0E004C08FE3EB
:1009400090E0A0E0B0E0E80EF91E0A1F1B1F17FFA1
:1009500005C016950795F794E794319687E01695AC
:100960000795F794E7948A95D1F705C0EE24FF2404
:100970008701EFEFF0E06E2F679566276795902F60
:100980009F77D794DD24D7948E2F8695492F462BB9
:10099000582F5D29B701CA011F910F91FF90EF9069
:1009A000DF900895FC01DB01408151812281622F9B
:1009B0006F7770E0221F2227221F9381892F880FD3
:1009C000822B282F30E0991F9927991F11969C930D
:1009D000119721153105A9F54115510561057105DD
:1009E00011F482E037C082E89FEF13969C938E93B8
:1009F00012979A01AB0167E0220F331F441F551F66
:100A00006A95D1F783E08C930DC0220F331F441FEA
:100A1000551F12968D919C911397019713969C9355
:100A20008E931297203080E0380780E0480780E4FA
:100A3000580758F314962D933D934D935C93179755
:100A400008952F3F310579F4411551056105710570
:100A500019F484E08C93089564FF03C081E08C93C3
:100A600012C01C9210C02F57304013963C932E9307
:100A7000129783E08C9387E0440F551F661F771F02
:100A80008A95D1F7706414964D935D936D937C9322
:100A9000179708951F93DC01FB019C91923008F495
:100AA00047C08081823008F443C0943051F41196DD
:100AB0001C91843099F58181682F70E0611B710968
:100AC0003FC0843021F0923031F48230B9F181811D
:100AD000882389F12DC011961C9111978230F1F075
:100AE00081811817D9F412962D913C911397828128
:100AF00093818217930794F028173907BCF0149656
:100B00008D919D910D90BC91A02D248135814681C0
:100B10005781281739074A075B0718F4112341F05A
:100B20000AC082179307A407B50740F4112319F0F0
:100B300061E070E005C06FEF7FEF02C060E070E041
:100B4000CB011F910895DF93CF93CDB7DEB780918E
:100B500079008F5F80937900CF91DF910895DF93C3
:100B6000CF93CDB7DEB72C970FB6F894DEBF0FBE8C
:100B7000CDBF8F83CE01019699878887EAE6F0E0A2
:100B8000FB87EA87F6E0FC87EA85FB8500808A859B
:100B90009B8501969B878A87E885F98500828885F1
:100BA00099850196998788879C8591509C87EC85CB
:100BB000EE2351F7CE0101960E944E1590917900D7
:100BC0008F819817D9F70E94AE15109279002C9654
:100BD0000FB6F894DEBF0FBECDBFCF91DF91089561
:100BE0000F931F93DF93CF93CDB7DEB7CA55D04095
:100BF0000FB6F894DEBF0FBECDBFFE01E75AFF4F20
:100C000011821082CAC0FE01E75AFF4F0081118194
:100C10000E94EE16F801EC57FF4F8083FE01EF5A59
:100C2000FF4F80E090E0A0E2B1E480839183A28353
:100C3000B3838E01035B1F4FFE01EF5AFF4F6081AC
:100C400071818281938120E030E04AEF54E40E9478
:100C50001F02DC01CB01F80180839183A283B3835F
:100C6000FE01E35BFF4F608171818281938120E00F
:100C700030E040E85FE30E947903882344F4FE01FA
:100C8000E55BFF4F81E090E09183808364C0FE01CB
:100C9000E35BFF4F608171818281938120E03FEFB0
:100CA0004FE757E40E94190318160CF043C0FE01E9
:100CB000EF5AFF4F608171818281938120E030E0A3
:100CC00040E251E40E941F02DC01CB018E01055B72
:100CD0001F4FBC01CD010E944900DC01CB01F8018E
:100CE000918380831FC0FE01E75BFF4F88EC90E09B
:100CF00091838083FE01E75BFF4F808191810197A3
:100D0000F1F7FE01E75BFF4F91838083DE01A55B76
:100D1000BF4FFE01E55BFF4F8081918101971196E6
:100D20009C938E93FE01E55BFF4F8081918100973C
:100D3000D1F627C08E01055B1F4FFE01E35BFF4F1D
:100D400060817181828193810E944900DC01CB0125
:100D5000F80191838083DE01A95BBF4FFE01E55B53
:100D6000FF4F808191818D939C93FE01E95BFF4F42
:100D7000808191810197F1F7FE01E95BFF4F91833B
:100D80008083DE01A75ABF4FFE01E75AFF4F8081E3
:100D90009181019611969C938E93FE01E75AFF4F25
:100DA00080819181853091050CF42DCFFE01E95AA7
:100DB000FF4F118210829CC0FE01E95AFF4F008153
:100DC00011810E94EE16F801E158FF4F8083FE0169
:100DD000ED5BFF4F80E090E0A0E2B1E4808391837F
:100DE000A283B3838E01015C1F4FFE01ED5BFF4FB9
:100DF000608171818281938120E030E04AEF54E488
:100E00000E941F02DC01CB01F80180839183A28341
:100E1000B383FE01FF96608171818281938120E01E
:100E200030E040E85FE30E94790388232CF481E0FE
:100E300090E09EAF8DAF46C0FE01FF96608171814C
:100E40008281938120E03FEF4FE757E40E9419032E
:100E5000181664F5FE01ED5BFF4F608171818281A0
:100E6000938120E030E040E251E40E941F02DC0167
:100E7000CB01BC01CD010E944900DC01CB019EAF3A
:100E80008DAF0FC088EC90E09CAF8BAF8BAD9CAD6D
:100E90000197F1F79CAF8BAF8DAD9EAD01979EAFE3
:100EA0008DAF8DAD9EAD009769F716C0FE01FF9620
:100EB00060817181828193810E944900DC01CB01B4
:100EC0009EAF8DAF8DAD9EAD9AAF89AF89AD9AAD16
:100ED0000197F1F79AAF89AFDE01A95ABF4FFE0122
:100EE000E95AFF4F80819181019611969C938E93D0
:100EF000FE01E95AFF4F80819181853091050CF404
:100F00005BCF81E080936800FE01EB5AFF4F1182B6
:100F1000108295C0FE01EB5AFF4F80819181FC0148
:100F2000EC57FF4F2081FE01EB5AFF4F80819181EA
:100F3000FC01E158FF4F8081281709F474C010921A
:100F4000680080E090E0A0E2B1E48DAB9EABAFAB77
:100F5000B8AF6DA97EA98FA998AD20E030E04AEF27
:100F600054E40E941F02DC01CB0189AB9AABABAB0E
:100F7000BCAB69A97AA98BA99CA920E030E040E824
:100F80005FE30E94790388232CF481E090E098AB22
:100F90008FA73FC069A97AA98BA99CA920E03FEF40
:100FA0004FE757E40E94190318164CF56DA97EA966
:100FB0008FA998AD20E030E040E251E40E941F028A
:100FC000DC01CB01BC01CD010E944900DC01CB0159
:100FD00098AB8FA70FC088EC90E09EA78DA78DA53A
:100FE0009EA50197F1F79EA78DA78FA598A90197B8
:100FF00098AB8FA78FA598A9009769F714C069A926
:101000007AA98BA99CA90E944900DC01CB0198AB6D
:101010008FA78FA598A99CA78BA78BA59CA50197A7
:10102000F1F79CA78BA7DE01AB5ABF4FFE01EB5A2D
:10103000FF4F80819181019611969C938E93FE01C2
:10104000EB5AFF4F80819181853091050CF462CF7E
:1010500080E090E0A8E4B2E48FA398A7A9A7BAA77C
:101060006FA178A589A59AA520E030E04AEF54E465
:101070000E941F02DC01CB018BA39CA3ADA3BEA3E6
:101080006BA17CA18DA19EA120E030E040E85FE350
:101090000E94790388232CF481E090E09AA389A32D
:1010A0003FC06BA17CA18DA19EA120E03FEF4FE747
:1010B00057E40E94190318164CF56FA178A589A56D
:1010C0009AA520E030E040E251E40E941F02DC01DA
:1010D000CB01BC01CD010E944900DC01CB019AA3E8
:1010E00089A30FC088EC90E098A38F8F8F8D98A173
:1010F0000197F1F798A38F8F89A19AA101979AA3DD
:1011000089A389A19AA1009769F714C06BA17CA15A
:101110008DA19EA10E944900DC01CB019AA389A365
:1011200089A19AA19E8F8D8F8D8D9E8D0197F1F74C
:101130009E8F8D8F809168000E94D71680E090E08E
:10114000A8ECB2E4898F9A8FAB8FBC8F698D7A8DB2
:101150008B8D9C8D20E030E04AEF54E40E941F020A
:10116000DC01CB018D8B9E8BAF8BB88F6D897E8917
:101170008F89988D20E030E040E85FE30E9479039A
:1011800088232CF481E090E09C8B8B8B3FC06D8991
:101190007E898F89988D20E03FEF4FE757E40E94CA
:1011A000190318164CF5698D7A8D8B8D9C8D20E076
:1011B00030E040E251E40E941F02DC01CB01BC019F
:1011C000CD010E944900DC01CB019C8B8B8B0FC0B1
:1011D00088EC90E09A8B898B89899A890197F1F73D
:1011E0009A8B898B8B899C8901979C8B8B8B8B89A4
:1011F0009C89009769F714C06D897E898F89988DC5
:101200000E944900DC01CB019C8B8B8B8B899C89D4
:10121000988B8F878F8598890197F1F7988B8F87A7
:1012200080916800813009F07FC010927A000E949E
:10123000D01524E830E081E193E0B90145E050E0C9
:101240000E945D0F80E090E0A8ECB2E48B879C8761
:10125000AD87BE876B857C858D859E8520E030E0DF
:101260004AEF54E40E941F02DC01CB018F83988770
:10127000A987BA876F81788589859A8520E030E0D3
:1012800040E85FE30E94790388232CF481E090E03A
:101290009E838D833FC06F81788589859A8520E004
:1012A0003FEF4FE757E40E94190318164CF56B8582
:1012B0007C858D859E8520E030E040E251E40E94EF
:1012C0001F02DC01CB01BC01CD010E944900DC0101
:1012D000CB019E838D830FC088EC90E09C838B8331
:1012E0008B819C810197F1F79C838B838D819E81FB
:1012F00001979E838D838D819E81009769F714C02D
:101300006F81788589859A850E944900DC01CB012F
:101310009E838D838D819E819A83898389819A8121
:101320000197F1F79A838983C65ADF4F0FB6F89475
:10133000DEBF0FBECDBFCF91DF911F910F910895FA
:10134000DF93CF93CDB7DEB72E970FB6F894DEBFFD
:101350000FBECDBF0E94EE168093780080E090E033
:10136000A8E4B2E48B879C87AD87BE876B857C85BC
:101370008D859E8520E030E04AEF54E40E941F02F4
:10138000DC01CB018F839887A987BA876F81788525
:1013900089859A8520E030E040E85FE30E94790388
:1013A00088232CF481E090E09E838D833FC06F8181
:1013B000788589859A8520E03FEF4FE757E40E94C2
:1013C000190318164CF56B857C858D859E8520E06C
:1013D00030E040E251E40E941F02DC01CB01BC017D
:1013E000CD010E944900DC01CB019E838D830FC09B
:1013F00088EC90E09C838B838B819C810197F1F733
:101400009C838B838D819E8101979E838D838D81AB
:101410009E81009769F714C06F81788589859A85C8
:101420000E944900DC01CB019E838D838D819E81CA
:101430009A83898389819A810197F1F79A838983B5
:101440002E960FB6F894DEBF0FBECDBFCF91DF91C1
:1014500008950F931F93DF93CF93CDB7DEB7CD558C
:10146000D0400FB6F894DEBF0FBECDBFFE01E95AE3
:10147000FF4F11821082CEC0FE01E95AFF4F00815A
:1014800011810E94EE16282FCE01875A9F4FFC0132
:10149000E00FF11F2083FE01EF5AFF4F80E090E044
:1014A000A0EAB1E480839183A283B3838E01035BBE
:1014B0001F4FFE01EF5AFF4F60817181828193813E
:1014C00020E030E04AEF54E40E941F02DC01CB012F
:1014D000F80180839183A283B383FE01E35BFF4F16
:1014E000608171818281938120E030E040E85FE398
:1014F0000E947903882344F4FE01E55BFF4F81E0FD
:1015000090E09183808364C0FE01E35BFF4F6081C4
:1015100071818281938120E03FEF4FE757E40E9481
:10152000190318160CF043C0FE01EF5AFF4F6081FB
:1015300071818281938120E030E040E251E40E9499
:101540001F02DC01CB018E01055B1F4FBC01CD01E9
:101550000E944900DC01CB01F801918380831FC008
:10156000FE01E75BFF4F88EC90E091838083FE01F2
:10157000E75BFF4F808191810197F1F7FE01E75B07
:10158000FF4F91838083DE01A55BBF4FFE01E55BCA
:10159000FF4F80819181019711969C938E93FE015C
:1015A000E55BFF4F808191810097D1F627C08E01C6
:1015B000055B1F4FFE01E35BFF4F608171818281FC
:1015C00093810E944900DC01CB01F8019183808363
:1015D000DE01A95BBF4FFE01E55BFF4F808191817A
:1015E0008D939C93FE01E95BFF4F80819181019770
:1015F000F1F7FE01E95BFF4F91838083DE01A95A79
:10160000BF4FFE01E95AFF4F8081918101961196EB
:101610009C938E93FE01E95AFF4F80819181853022
:1016200091050CF429CFFE01ED5BFF4F80E090E0C7
:10163000A8E4B2E480839183A283B3838E01015C2A
:101640001F4FFE01ED5BFF4F6081718182819381AD
:1016500020E030E04AEF54E40E941F02DC01CB019D
:10166000F80180839183A283B383FE01FF9660819A
:1016700071818281938120E030E040E85FE30E9445
:10168000790388232CF481E090E09EAF8DAF46C0B3
:10169000FE01FF96608171818281938120E03FEF9E
:1016A0004FE757E40E941903181664F5FE01ED5B3D
:1016B000FF4F608171818281938120E030E040E2C0
:1016C00051E40E941F02DC01CB01BC01CD010E944C
:1016D0004900DC01CB019EAF8DAF0FC088EC90E0DC
:1016E0009CAF8BAF8BAD9CAD0197F1F79CAF8BAFEF
:1016F0008DAD9EAD01979EAF8DAF8DAD9EAD009728
:1017000069F716C0FE01FF96608171818281938125
:101710000E944900DC01CB019EAF8DAF8DAD9EAD27
:101720009AAF89AF89AD9AAD0197F1F79AAF89AFBA
:101730000E94D01524E830E081E193E0B90145E052
:1017400050E00E94301080E090E0A8ECB2E48DAB55
:101750009EABAFABB8AF6DA97EA98FA998AD20E0C5
:1017600030E04AEF54E40E941F02DC01CB0189AB58
:101770009AABABABBCAB69A97AA98BA99CA920E0B9
:1017800030E040E85FE30E94790388232CF481E095
:1017900090E098AB8FA73FC069A97AA98BA99CA9B3
:1017A00020E03FEF4FE757E40E94190318164CF56D
:1017B0006DA97EA98FA998AD20E030E040E251E408
:1017C0000E941F02DC01CB01BC01CD010E94490037
:1017D000DC01CB0198AB8FA70FC088EC90E09EA7EF
:1017E0008DA78DA59EA50197F1F79EA78DA78FA523
:1017F00098A9019798AB8FA78FA598A9009769F72B
:1018000014C069A97AA98BA99CA90E944900DC018E
:10181000CB0198AB8FA78FA598A99CA78BA78BA569
:101820009CA50197F1F79CA78BA781E080936800A6
:10183000FE01EB5AFF4F1182108298C0FE01EB5A55
:10184000FF4F20813181CE01875A9F4FFC01E20F6B
:10185000F31F2081FE01EB5AFF4F80819181FC0133
:10186000EC57FF4F8081281709F474C0109268006C
:1018700080E090E0A0EAB1E48FA398A7A9A7BAA757
:101880006FA178A589A59AA520E030E04AEF54E43D
:101890000E941F02DC01CB018BA39CA3ADA3BEA3BE
:1018A0006BA17CA18DA19EA120E030E040E85FE328
:1018B0000E94790388232CF481E090E09AA389A305
:1018C0003FC06BA17CA18DA19EA120E03FEF4FE71F
:1018D00057E40E94190318164CF56FA178A589A545
:1018E0009AA520E030E040E251E40E941F02DC01B2
:1018F000CB01BC01CD010E944900DC01CB019AA3C0
:1019000089A30FC088EC90E098A38F8F8F8D98A14A
:101910000197F1F798A38F8F89A19AA101979AA3B4
:1019200089A389A19AA1009769F714C06BA17CA132
:101930008DA19EA10E944900DC01CB019AA389A33D
:1019400089A19AA19E8F8D8F8D8D9E8D0197F1F724
:101950009E8F8D8FDE01AB5ABF4FFE01EB5AFF4FBA
:1019600080819181019611969C938E93FE01EB5A92
:10197000FF4F80819181853091050CF45FCF80E02D
:1019800090E0A8E4B2E4898F9A8FAB8FBC8F698D09
:101990007A8D8B8D9C8D20E030E04AEF54E40E94DC
:1019A0001F02DC01CB018D8B9E8BAF8BB88F6D89B5
:1019B0007E898F89988D20E030E040E85FE30E94C7
:1019C000790388232CF481E090E09C8B8B8B3FC0C3
:1019D0006D897E898F89988D20E03FEF4FE757E42E
:1019E0000E94190318164CF5698D7A8D8B8D9C8D8C
:1019F00020E030E040E251E40E941F02DC01CB0114
:101A0000BC01CD010E944900DC01CB019C8B8B8B7A
:101A10000FC088EC90E09A8B898B89899A8901970D
:101A2000F1F79A8B898B8B899C8901979C8B8B8B87
:101A30008B899C89009769F714C06D897E898F898D
:101A4000988D0E944900DC01CB019C8B8B8B8B898C
:101A50009C89988B8F878F8598890197F1F7988B50
:101A60008F87809168000E94D71680E090E0A8ECF4
:101A7000B2E48B879C87AD87BE876B857C858D851F
:101A80009E8520E030E04AEF54E40E941F02DC0112
:101A9000CB018F839887A987BA876F8178858985DD
:101AA0009A8520E030E040E85FE30E9479038823D4
:101AB0002CF481E090E09E838D833FC06F81788518
:101AC00089859A8520E03FEF4FE757E40E9419038C
:101AD00018164CF56B857C858D859E8520E030E061
:101AE00040E251E40E941F02DC01CB01BC01CD01A8
:101AF0000E944900DC01CB019E838D830FC088ECDE
:101B000090E09C838B838B819C810197F1F79C8370
:101B10008B838D819E8101979E838D838D819E8194
:101B2000009769F714C06F81788589859A850E942E
:101B30004900DC01CB019E838D838D819E819A8338
:101B4000898389819A810197F1F79A838983C35A9E
:101B5000DF4F0FB6F894DEBF0FBECDBFCF91DF9140
:101B60001F910F910895DF93CF93CDB7DEB781E03A
:101B70000E94070F8FE00E94AF0580E00E94070FD0
:101B800085E00E94AF0582E00E94070F8FE00E946F
:101B9000AF050E94480F0E94A009CF91DF910895E0
:101BA000DF93CF93CDB7DEB70E94F005CF91DF91E1
:101BB0000895DF93CF9300D0CDB7DEB70E944D11CB
:101BC0001A82198208C081E00E94AF0589819A813A
:101BD00001969A83898389819A818B3091059CF340
:101BE0000E9462110E94A0090F900F90CF91DF9187
:101BF0000895DF93CF93CDB7DEB76E970FB6F89405
:101C0000DEBF0FBECDBF0E942A110E94E40EAFE5D9
:101C1000B0E0EFE5F0E0808180688C9383EA95E0A6
:101C20000E94BE15CE014196998F888FE0E7F0E0C3
:101C3000FB8FEA8FF7E0FC8FEA8DFB8D00808A8DA9
:101C40009B8D01969B8F8A8FE88DF98D0082888D00
:101C5000998D0196998F888F9C8D91509C8FEC8DDA
:101C6000EE2351F7CE0141960E944D1680E090E0A0
:101C7000A8E4B2E48B879C87AD87BE876B857C85A3
:101C80008D859E8520E030E04AEF54E40E941F02DB
:101C9000DC01CB018F839887A987BA876F8178850C
:101CA00089859A8520E030E040E85FE30E9479036F
:101CB00088232CF481E090E09E838D833FC06F8168
:101CC000788589859A8520E03FEF4FE757E40E94A9
:101CD000190318164CF56B857C858D859E8520E053
:101CE00030E040E251E40E941F02DC01CB01BC0164
:101CF000CD010E944900DC01CB019E838D830FC082
:101D000088EC90E09C838B838B819C810197F1F719
:101D10009C838B838D819E8101979E838D838D8192
:101D20009E81009769F714C06F81788589859A85AF
:101D30000E944900DC01CB019E838D838D819E81B1
:101D40009A83898389819A810197F1F79A8389839C
:101D500080E20E94D7160E94EE16882F90E0988BA2
:101D60008F878F8598899E8F8D8FED8DFE8DE330C7
:101D7000F10509F18D8D9E8D843091055CF4ED8D1A
:101D8000FE8DE130F10589F08D8D9E8D82309105BB
:101D900079F0E1CFED8DFE8DE430F10579F08D8D98
:101DA0009E8D8630910569F0D6CF0E94F005D3CF85
:101DB0000E94A009D0CF0E94290ACDCF0E94B30D66
:101DC000CACF0E94D90DC7CFDF93CF93CDB7DEB76F
:101DD000AAE3B0E0EAE3F0E0808180678C93ABE3B4
:101DE000B0E0EBE3F0E080818F7E8C93ABE3B0E07A
:101DF000EBE3F0E080818F7D8C93ABE3B0E0EBE32D
:101E0000F0E0808180648C93CF91DF910895DF931F
:101E1000CF9300D00F92CDB7DEB789838981282F69
:101E200030E03B832A838A819B818130910551F088
:101E30002A813B812230310581F08A819B81009784
:101E4000B9F020C080E064E040E00E94621280E0CF
:101E500065E041E00E94621215C080E064E041E06C
:101E60000E94621280E065E040E00E9462120AC0B7
:101E700080E064E040E00E94621280E065E040E0C3
:101E80000E9462120F900F900F90CF91DF910895F2
:101E9000DF93CF93CDB7DEB7ABE3B0E0EBE3F0E099
:101EA00080818F7E8C93ABE3B0E0EBE3F0E0808148
:101EB0008F7D8C93CF91DF910895DF93CF93CDB732
:101EC000DEB766970FB6F894DEBF0FBECDBF9A8B14
:101ED000898B7C8B6B8B4D8B0E94E6150E943E1686
:101EE000883011F01E8AB2C089899A8980709770F3
:101EF000880F892F881F990B9195806A0E9401167F
:101F00000E943E16883111F01E8AA0C089890E9465
:101F100001160E943E16883211F01E8A97C0188A58
:101F20001F8687C0EB89FC8980810E9401160E9470
:101F30003E16883211F01E8A89C08B899C890196D1
:101F40009C8B8B8B80E090E0A0E2B1E48B879C8738
:101F5000AD87BE876B857C858D859E8520E030E0D2
:101F60004AEF54E40E941F02DC01CB018F83988763
:101F7000A987BA876F81788589859A8520E030E0C6
:101F800040E85FE30E94790388232CF481E090E02D
:101F90009E838D833FC06F81788589859A8520E0F7
:101FA0003FEF4FE757E40E94190318164CF56B8575
:101FB0007C858D859E8520E030E040E251E40E94E2
:101FC0001F02DC01CB01BC01CD010E944900DC01F4
:101FD000CB019E838D830FC088EC90E09C838B8324
:101FE0008B819C810197F1F79C838B838D819E81EE
:101FF00001979E838D838D819E81009769F714C020
:102000006F81788589859A850E944900DC01CB0122
:102010009E838D838D819E819A83898389819A8114
:102020000197F1F79A8389838F8598890196988B18
:102030008F878D89282F30E08F85988982179307A5
:102040000CF470CF0E94F61581E08E8B8E89669617
:102050000FB6F894DEBF0FBECDBFCF91DF910895CC
:10206000DF93CF93CDB7DEB766970FB6F894DEBF98
:102070000FBECDBF9A8B898B7C8B6B8B4D8B0E9457
:10208000E6150E943E16883011F01E8AD9C0898953
:102090009A8980709770880F892F881F990B919566
:1020A000806A0E9401160E943E16883111F01E8A35
:1020B000C7C089890E9401160E943E16883211F01D
:1020C0001E8ABEC00E94E6150E943E16803111F0A5
:1020D0001E8AB6C089899A8980709770880F892F67
:1020E000881F990B9195816A0E9401160E943E16E5
:1020F000803411F01E8AA4C081E090E0988B8F8715
:1021000087C00E941816EB89FC8980830E943E16C6
:10211000803511F01E8A94C08B899C8901969C8B16
:102120008B8B80E090E0A0E2B1E48B879C87AD8749
:10213000BE876B857C858D859E8520E030E04AEFEB
:1021400054E40E941F02DC01CB018F839887A9878A
:10215000BA876F81788589859A8520E030E040E8EC
:102160005FE30E94790388232CF481E090E09E8352
:102170008D833FC06F81788589859A8520E03FEF08
:102180004FE757E40E94190318164CF56B857C85C0
:102190008D859E8520E030E040E251E40E941F02E0
:1021A000DC01CB01BC01CD010E944900DC01CB0167
:1021B0009E838D830FC088EC90E09C838B838B8102
:1021C0009C810197F1F79C838B838D819E81019780
:1021D0009E838D838D819E81009769F714C06F81E6
:1021E000788589859A850E944900DC01CB019E8310
:1021F0008D838D819E819A83898389819A810197BC
:10220000F1F79A8389838F8598890196988B8F87B8
:102210008D89282F30E08F859889821793070CF4D9
:1022200070CF0E942B16EB89FC8980830E943E169A
:10223000883511F01E8A04C00E94F61581E08E8B4D
:102240008E8966960FB6F894DEBF0FBECDBFCF91D4
:10225000DF910895DF93CF93CDB7DEB7A1E3B0E070
:10226000E1E3F0E0808180648C93A1E3B0E0E1E3FE
:10227000F0E0808180688C93A2E3B0E0E2E3F0E0DC
:1022800080818F7B8C93A2E3B0E0E2E3F0E0808179
:102290008F778C93CF91DF910895DF93CF93CDB754
:1022A000DEB7A2E3B0E0E2E3F0E0808180648C93EB
:1022B000A2E3B0E0E2E3F0E0808180688C93CF910C
:1022C000DF910895DF93CF93CDB7DEB7A2E3B0E0FF
:1022D000E2E3F0E080818F7B8C93A2E3B0E0E2E365
:1022E000F0E080818F778C93CF91DF910895DF9319
:1022F000CF9300D000D00F92CDB7DEB789836A8329
:102300004B838A81883008F0D5C08981843008F0F9
:10231000D1C08981282F30E03D832C838C819D8121
:102320008130910509F443C02C813D812230310573
:102330002CF48C819D81009771F0BCC02C813D8173
:102340002230310509F45FC08C819D818330910575
:1023500009F485C0AFC08B818130A1F4AAE3B0E05D
:10236000EAE3F0E08081482F8A81282F30E081E085
:1023700090E0022E02C0880F991F0A94E2F7842B86
:102380008C9398C0AAE3B0E0EAE3F0E08081482FA4
:102390008A81282F30E081E090E0022E02C0880F71
:1023A000991F0A94E2F7809584238C9383C08B81D4
:1023B0008130A1F4A7E3B0E0E7E3F0E08081482FAB
:1023C0008A81282F30E081E090E0022E02C0880F41
:1023D000991F0A94E2F7842B8C936CC0A7E3B0E0BA
:1023E000E7E3F0E08081482F8A81282F30E081E008
:1023F00090E0022E02C0880F991F0A94E2F78095A0
:1024000084238C9357C08B818130A1F4A4E3B0E086
:10241000E4E3F0E08081482F8A81282F30E081E0DA
:1024200090E0022E02C0880F991F0A94E2F7842BD5
:102430008C9340C0A4E3B0E0E4E3F0E08081482F57
:102440008A81282F30E081E090E0022E02C0880FC0
:10245000991F0A94E2F7809584238C932BC08B817B
:102460008130A1F4A1E3B0E0E1E3F0E08081482F06
:102470008A81282F30E081E090E0022E02C0880F90
:10248000991F0A94E2F7842B8C9314C0A1E3B0E067
:10249000E1E3F0E08081482F8A81282F30E081E05D
:1024A00090E0022E02C0880F991F0A94E2F78095EF
:1024B00084238C930F900F900F900F900F90CF91DB
:1024C000DF910895DF93CF9300D000D00F92CDB766
:1024D000DEB789836A834B838A81883008F0D5C050
:1024E0008981843008F0D1C08981282F30E03D8374
:1024F0002C838C819D818130910509F443C02C810E
:102500003D81223031052CF48C819D81009771F042
:10251000BCC02C813D812230310509F45FC08C8123
:102520009D818330910509F485C0AFC08B818130D6
:10253000A1F4ABE3B0E0EBE3F0E08081482F8A81C7
:10254000282F30E081E090E0022E02C0880F991F12
:102550000A94E2F7842B8C9398C0ABE3B0E0EBE3F2
:10256000F0E08081482F8A81282F30E081E090E0E0
:10257000022E02C0880F991F0A94E2F780958423E7
:102580008C9383C08B818130A1F4A8E3B0E0E8E3B1
:10259000F0E08081482F8A81282F30E081E090E0B0
:1025A000022E02C0880F991F0A94E2F7842B8C93A5
:1025B0006CC0A8E3B0E0E8E3F0E08081482F8A81B6
:1025C000282F30E081E090E0022E02C0880F991F92
:1025D0000A94E2F7809584238C9357C08B818130D5
:1025E000A1F4A5E3B0E0E5E3F0E08081482F8A8123
:1025F000282F30E081E090E0022E02C0880F991F62
:102600000A94E2F7842B8C9340C0A5E3B0E0E5E3A5
:10261000F0E08081482F8A81282F30E081E090E02F
:10262000022E02C0880F991F0A94E2F78095842336
:102630008C932BC08B818130A1F4A2E3B0E0E2E364
:10264000F0E08081482F8A81282F30E081E090E0FF
:10265000022E02C0880F991F0A94E2F7842B8C93F4
:1026600014C0A2E3B0E0E2E3F0E08081482F8A8169
:10267000282F30E081E090E0022E02C0880F991FE1
:102680000A94E2F7809584238C930F900F900F901B
:102690000F900F90CF91DF910895DF93CF9300D0EB
:1026A00000D00F92CDB7DEB78A836B8319828B81FE
:1026B000883008F084C08A81843008F080C08A8124
:1026C000282F30E03D832C834C815D8141305105C2
:1026D00079F18C819D818230910534F42C813D818A
:1026E0002115310569F06BC04C815D814230510587
:1026F000B9F18C819D818330910509F449C05FC097
:10270000E9E3F0E08081282F30E08B81882F90E092
:10271000A90102C0559547958A95E2F7CA018170D3
:102720009070882319F081E0898349C0198247C0DD
:10273000E6E3F0E08081282F30E08B81882F90E065
:10274000A90102C0559547958A95E2F7CA018170A3
:102750009070882319F081E0898331C019822FC0DD
:10276000E3E3F0E08081282F30E08B81882F90E038
:10277000A90102C0559547958A95E2F7CA01817073
:102780009070882319F081E0898319C0198217C0DD
:10279000E0E3F0E08081282F30E08B81882F90E00B
:1027A000A90102C0559547958A95E2F7CA01817043
:1027B0009070882319F081E0898301C01982898192
:1027C0000F900F900F900F900F90CF91DF91089581
:1027D000DF93CF9300D000D0CDB7DEB789836A8373
:1027E0008981843090F58981282F30E03C832B83C8
:1027F0008B819C8181309105D1F02B813C812230ED
:1028000031052CF48B819C81009761F01EC02B81D7
:102810003C812230310581F08B819C818330910590
:1028200081F013C0EAE3F0E08A8180830EC0E7E321
:10283000F0E08A81808309C0E4E3F0E08A8180834C
:1028400004C0E1E3F0E08A8180830F900F900F9045
:102850000F90CF91DF910895DF93CF9300D000D0F8
:10286000CDB7DEB789836A838981843090F5898109
:10287000282F30E03C832B838B819C818130910514
:10288000D1F02B813C81223031052CF48B819C814D
:10289000009761F01EC02B813C812230310581F010
:1028A0008B819C818330910581F013C0EBE3F0E0D4
:1028B0008A8180830EC0E8E3F0E08A81808309C0CA
:1028C000E5E3F0E08A81808304C0E2E3F0E08A81FE
:1028D00080830F900F900F900F90CF91DF9108950C
:1028E000DF93CF9300D000D0CDB7DEB78A831982B3
:1028F0008A81843090F58A81282F30E03C832B83B5
:102900008B819C8181309105D1F02B813C812230DB
:1029100031052CF48B819C81009761F01EC02B81C6
:102920003C812230310581F08B819C81833091057F
:1029300081F013C0E9E3F0E0808189830EC0E6E313
:10294000F0E08081898309C0E3E3F0E0808189833E
:1029500004C0E0E3F0E08081898389810F900F90CB
:102960000F900F90CF91DF9108951F920F920FB6A5
:102970000F9211242F933F934F935F936F937F9305
:102980008F939F93AF93BF93EF93FF93DF93CF9377
:10299000CDB7DEB780917C0090917D00009729F043
:1029A000E0917C00F0917D000995CF91DF91FF913E
:1029B000EF91BF91AF919F918F917F916F915F91B7
:1029C0004F913F912F910F900FBE0F901F90189530
:1029D0001F920F920FB60F9211242F933F934F9394
:1029E0005F936F937F938F939F93AF93BF93EF9377
:1029F000FF93DF93CF93CDB7DEB780917C009091AA
:102A00007D00009729F0E0917C00F0917D00099510
:102A1000CF91DF91FF91EF91BF91AF919F918F91F6
:102A20007F916F915F914F913F912F910F900FBECA
:102A30000F901F9018951F920F920FB60F921124AE
:102A40002F933F934F935F936F937F938F939F93B6
:102A5000AF93BF93EF93FF93DF93CF93CDB7DEB7E1
:102A600080917C0090917D00009729F0E0917C009E
:102A7000F0917D000995CF91DF91FF91EF91BF918A
:102A8000AF919F918F917F916F915F914F913F9106
:102A90002F910F900FBE0F901F901895DF93CF933B
:102AA00000D0CDB7DEB79A838983EFE4F0E08CE005
:102AB0008083AFE4B0E0EFE4F0E08081982F9C7F6A
:102AC000E981FA8185818370892B8C93AEE4B0E033
:102AD000EEE4F0E08081282F277EE981FA8185816C
:102AE000882F90E08C709070880F991F822B8C93A8
:102AF000ACE4B0E0E981FA818081918111969C93E8
:102B00008E93E981FA818581882329F4E9E5F0E053
:102B100084E0808312C0E981FA818581843069F480
:102B2000AAE4B0E0E981FA818281938111969C93B5
:102B30008E93E9E5F0E080E18083AEE4B0E0EEE47E
:102B4000F0E08081982F987FE981FA818481892B38
:102B50008C930F900F90CF91DF910895DF93CF93D7
:102B6000CDB7DEB7EFE4F0E01082EEE4F0E01082E3
:102B7000E9E5F0E01082CF91DF910895DF93CF93E4
:102B800000D0CDB7DEB79A83898389819A819093EB
:102B90007D0080937C000F900F90CF91DF9108957E
:102BA000DF93CF93CDB7DEB7E0E2F0E082E0808341
:102BB000E1E2F0E01082E2E2F0E082E08083E6E52C
:102BC000F0E084E08083CF91DF910895DF93CF938D
:102BD000CDB7DEB7E6E5F0E084EA8083E6E5F0E035
:102BE00080818823DCF7CF91DF910895DF93CF9325
:102BF000CDB7DEB7E6E5F0E084E98083CF91DF91E1
:102C00000895DF93CF930F92CDB7DEB78983E3E2C8
:102C1000F0E089818083E6E5F0E084E88083E6E502
:102C2000F0E080818823DCF70F90CF91DF91089549
:102C3000DF93CF93CDB7DEB7E6E5F0E084EC808399
:102C4000E6E5F0E080818823DCF7E3E2F0E08081D4
:102C5000CF91DF910895DF93CF93CDB7DEB7E6E54F
:102C6000F0E084E88083E6E5F0E080818823DCF70B
:102C7000E3E2F0E08081CF91DF910895DF93CF937D
:102C80000F92CDB7DEB7E1E2F0E08081887F8983E3
:102C900089810F90CF91DF910895DF93CF9300D07A
:102CA00000D0CDB7DEB79C838B831A821982EBE20A
:102CB000F0E082E08083EAE2F0E088E18083EB816B
:102CC000FC818081893021F5AAE2B0E0EAE2F0E0FF
:102CD000808184608C93A0E4B0E0EB81FC818281F0
:102CE000882F90E0880F991F880F991F880F991FD0
:102CF000282F2668EB81FC818181882F90E08295C6
:102D00009295907F9827807F9827822B8C931CC068
:102D1000A0E4B0E0EB81FC818281882F90E0880FF5
:102D2000991F880F991F880F991F282F2668EB81FC
:102D3000FC818181882F90E082959295907F9827E1
:102D4000807F9827822B8C93EB81FC8183819481F7
:102D5000A581B681880F991FAA1FBB1F880F991FD5
:102D6000AA1FBB1F880F991FAA1FBB1F9C01AD0183
:102D700080E092E1AAE7B0E0BC01CD010E946917B2
:102D8000DA01C90101979A838983E0E4F0E089813F
:102D90009A81892F99278083E9E2F0E089818083F5
:102DA0000F900F900F900F90CF91DF910895DF93C8
:102DB000CF930F92CDB7DEB78983EBE2F0E080814D
:102DC000882F90E0807290700097B9F3ECE2F0E009
:102DD000898180830F90CF91DF910895DF93CF9306
:102DE000CDB7DEB7EBE2F0E080818823DCF7ECE2E0
:102DF000F0E08081CF91DF910895DF93CF9300D0F1
:102E00000F92CDB7DEB79B838A8319820EC089816A
:102E1000282F30E08A819B81FC01E20FF31F808123
:102E20000E94D71689818F5F89838981282F30E09E
:102E30008A819B81FC01E20FF31F8081882339F78F
:102E40000F900F900F90CF91DF9108950F931F93E4
:102E5000DF93CF9300D00F92CDB7DEB79B838A83E9
:102E600019828981282F30E08A819B818C01020F91
:102E7000131F0E94EE16F80180830FC089818F5FB7
:102E800089838981282F30E08A819B818C01020F00
:102E9000131F0E94EE16F80180838981282F30E0ED
:102EA0008A819B81FC01E20FF31F8081833231F71D
:102EB0008981282F30E08A819B81FC01E20FF31F7A
:102EC00010820F900F900F90CF91DF911F910F9173
:102ED0000895A1E21A2EAA1BBB1BFD010DC0AA1F5B
:102EE000BB1FEE1FFF1FA217B307E407F50720F073
:102EF000A21BB30BE40BF50B661F771F881F991FEE
:102F00001A9469F760957095809590959B01AC0136
:102F1000BD01CF0108952F923F924F925F926F9221
:102F20007F928F929F92AF92BF92CF92DF92EF9259
:102F3000FF920F931F93CF93DF93CDB7DEB7CA1BDA
:102F4000DB0B0FB6F894DEBF0FBECDBF09942A8805
:102F5000398848885F846E847D848C849B84AA84AD
:102F6000B984C884DF80EE80FD800C811B81AA813A
:102F7000B981CE0FD11D0FB6F894DEBF0FBECDBF05
:082F8000ED010895F894FFCF64
:102F8800000000000000000001010000841E05048C
:082F9800030000802500000089
:00000001FF
