:100000000C942A000C9447000C9447000C94470071
:100010000C9447000C9447000C9447000C940D235B
:100020000C9440230C94DA220C9447000C94470063
:100030000C9447000C9447000C9447000C94470024
:100040000C9447000C9447000C9447000C94470014
:100050000C94470011241FBECFE5D8E0DEBFCDBF12
:1000600011E0A0E6B0E0E2E6FBE402C005900D92EC
:10007000A237B107D9F711E0A2E7B1E001C01D92A4
:10008000A837B107E1F70E9496180C94AF250C949D
:100090000000EF92FF920F931F937B018C0120E0F1
:1000A00030E040E05FE40E94490388238CF0C801FF
:1000B000B70120E030E040E05FE40E94C1010E940F
:1000C000A9039B01AC01205030404040504806C07D
:1000D000C801B7010E94A9039B01AC01B901CA0183
:1000E0001F910F91FF90EF900895A0E0B0E0EBE733
:1000F000F0E00C943325DC012B01FA019C91923045
:1001000008F439C1EB018881823008F433C194309E
:1001100069F4843009F02FC111969C91119789815F
:10012000981709F428C1ABE5B1E025C1843009F482
:1001300021C18230A9F4923009F01DC19A01AD01AC
:1001400088E0EA010990AE01E90109929E0181501F
:10015000C1F7E201898111969C918923818308C1AD
:10016000923009F407C112962D903C901397EB0141
:100170008A819B811496AD90BD90CD90DC901797AD
:10018000EC80FD800E811F819101281B390BB90184
:1001900037FF04C066277727621B730B6032710537
:1001A0000CF061C0121613066CF537014801062EDB
:1001B00004C096948794779467940A94D2F721E0C8
:1001C00030E040E050E004C0220F331F441F551FB1
:1001D0006A95D2F721503040404050402E213F21B7
:1001E00040235123211531054105510521F021E01E
:1001F00030E040E050E079018A01E628F72808293C
:1002000019293CC0232BD1F1260E371E350146019A
:10021000062E04C096948794779467940A94D2F734
:1002200021E030E040E050E004C0220F331F441FC3
:10023000551F6A95D2F721503040404050402A2146
:100240003B214C215D21211531054105510521F04E
:1002500021E030E040E050E059016A01A628B728CB
:10026000C828D9280BC0821593052CF01C01AA249C
:10027000BB24650103C0EE24FF24870111969C91E5
:10028000D20111968C91981709F445C0992339F041
:10029000A80197012A193B094C095D0906C0A6016E
:1002A00095012E193F09400B510B57FD08C01182D3
:1002B0003382228224833583468357831DC081E0A5
:1002C00081833382228288279927DC01821B930B4A
:1002D000A40BB50B84839583A683B7830DC0220F2F
:1002E000331F441F551F24833583468357838281E0
:1002F000938101979383828324813581468157813D
:10030000DA01C9010197A109B1098F5F9F4FAF4F72
:10031000BF4328F30BC0918333822282EA0CFB1C7B
:100320000C1D1D1DE482F5820683178383E0808304
:10033000248135814681578157FF1AC0C901AA27F8
:1003400097FDA095BA2F81709070A070B0705695EF
:10035000479537952795822B932BA42BB52B848318
:100360009583A683B7838281938101969383828349
:10037000DF0101C0D201CD01CDB7DEB7E2E10C94BF
:100380004F25A0E2B0E0E7ECF1E00C943F25698353
:100390007A838B839C832D833E834F835887E9E048
:1003A000EE2EF12CEC0EFD1ECE010196B7010E943F
:1003B000D2048E010F5E1F4FCE010596B8010E9438
:1003C000D2048A8991E089278A8BC701B801AE01DE
:1003D000475E5F4F0E9475000E94FD03A096E6E015
:1003E0000C945B25A0E2B0E0E8EFF1E00C943F252F
:1003F00069837A838B839C832D833E834F835887C5
:10040000F9E0EF2EF12CEC0EFD1ECE010196B701A6
:100410000E94D2048E010F5E1F4FCE010596B801D7
:100420000E94D204C701B801AE01475E5F4F0E942F
:1004300075000E94FD03A096E6E00C945B25A0E207
:10044000B0E0E5E2F2E00C94332569837A838B8394
:100450009C832D833E834F835887CE010196BE0136
:10046000675F7F4F0E94D204CE010596BE016F5E8A
:100470007F4F0E94D2049985923088F0898982301A
:10048000C8F0943019F4823051F404C0843029F457
:10049000923081F48BE591E0C6C0923049F420E0BF
:1004A0009A858A89981321E02A87CE010996BBC0D4
:1004B000823049F420E09A858A89981321E02A8BBA
:1004C000CE014196B0C02D843E844F8458886D88FB
:1004D0007E888F88988CEE24FF248701AA24BB2471
:1004E000650140E050E060E070E0E0E0F0E0C10174
:1004F00081709070892BE9F0E60CF71C081D191D1E
:100500009A01AB012A0D3B1D4C1D5D1D80E090E062
:10051000A0E0B0E0E614F7040805190520F481E036
:1005200090E0A0E0B0E0BA01A901480F591F6A1F8E
:100530007B1FAA0CBB1CCC1CDD1C97FE08C081E0F5
:1005400090E0A0E0B0E0A82AB92ACA2ADB2A3196B6
:10055000E032F10549F0660C771C881C991C569412
:10056000479437942794C3CFFA85EA892B893C892D
:100570008B859C85280F391F2E5F3F4F17C0CA01FE
:1005800081709070892B61F016950795F794E79428
:1005900080E090E0A0E0B0E8E82AF92A0A2B1B2BC3
:1005A00076956795579547952F5F3F4F77FDE7CF36
:1005B0000CC0440F551F661F771F17FD4160EE0CDE
:1005C000FF1C001F111F21503040403090E05907A0
:1005D00090E0690790E4790760F32B8F3C8FDB0193
:1005E000CA018F779070A070B07080349105A1051A
:1005F000B10561F447FD0AC0E114F10401051105DC
:1006000029F0405C5F4F6F4F7F4F40781A8EFE1786
:1006100011F081E08A8F4D8F5E8F6F8F78A383E01A
:10062000898FCE0149960E94FD03A096E2E10C94C9
:100630004F25A8E1B0E0EFE1F3E00C943F2569839A
:100640007A838B839C832D833E834F83588789E0F5
:10065000E82EF12CEC0EFD1ECE010196B7010E9492
:10066000D2048E010F5E1F4FCE010596B8010E9485
:10067000D2048985823040F08989823028F0C70110
:10068000B8010E944A0501C08FEF6896E6E00C941D
:100690005B25A8E1B0E0EFE4F3E00C943F2569832B
:1006A0007A838B839C832D833E834F83588789E095
:1006B000E82EF12CEC0EFD1ECE010196B7010E9432
:1006C000D2048E010F5E1F4FCE010596B8010E9425
:1006D000D2048985823040F08989823028F0C701B0
:1006E000B8010E944A0501C08FEF6896E6E00C94BD
:1006F0005B25A8E1B0E0EFE7F3E00C943F256983C8
:100700007A838B839C832D833E834F83588789E034
:10071000E82EF12CEC0EFD1ECE010196B7010E94D1
:10072000D2048E010F5E1F4FCE010596B8010E94C4
:10073000D2048985823040F08989823028F0C7014F
:10074000B8010E944A0501C081E06896E6E00C9479
:100750005B25ACE0B0E0EFEAF3E00C94432569835D
:100760007A838B839C83CE010196BE016B5F7F4FA2
:100770000E94D2048D81823061F1823050F1843048
:1007800021F48E81882351F12EC02F81388537FDC9
:1007900020C06E812F3131051CF06623F9F023C093
:1007A0008EE190E0821B930B29853A854B855C8511
:1007B00004C056954795379527958A95D2F76623B5
:1007C000B1F050954095309521953F4F4F4F5F4F79
:1007D0000EC020E030E040E050E009C02FEF3FEFD6
:1007E0004FEF5FE704C020E030E040E050E8B9019F
:1007F000CA012C96E2E00C945F25DF92EF92FF9203
:100800000F931F93FC01E480F58006811781D1804E
:100810008081823048F480E090E0A0E1B0E0E82AF6
:10082000F92A0A2B1B2BA5C0843009F49FC0823003
:1008300021F4EE24FF24870105C0E114F104010531
:10084000110519F4E0E0F0E096C0628173819FEF3A
:10085000623879070CF05BC022E83FEF261B370BAC
:100860002A3131052CF020E030E040E050E02AC091
:10087000B801A701022E04C0769567955795479554
:100880000A94D2F781E090E0A0E0B0E004C0880FC5
:10089000991FAA1FBB1F2A95D2F70197A109B10979
:1008A0008E219F21A023B1230097A105B10521F03E
:1008B00081E090E0A0E0B0E09A01AB01282B392B59
:1008C0004A2B5B2BDA01C9018F779070A070B07052
:1008D00080349105A105B10539F427FF09C0205CDA
:1008E0003F4F4F4F5F4F04C0215C3F4F4F4F5F4F13
:1008F000E0E0F0E02030A0E03A07A0E04A07A0E402
:100900005A0710F0E1E0F0E079018A0127C0603871
:10091000710564F5FB01E158FF4FD801C7018F77DE
:100920009070A070B07080349105A105B10539F4C4
:10093000E7FE0DC080E490E0A0E0B0E004C08FE3EB
:1009400090E0A0E0B0E0E80EF91E0A1F1B1F17FFA1
:1009500005C016950795F794E794319687E01695AC
:100960000795F794E7948A95D1F705C0EE24FF2404
:100970008701EFEFF0E06E2F679566276795902F60
:100980009F77D794DD24D7948E2F8695492F462BB9
:10099000582F5D29B701CA011F910F91FF90EF9069
:1009A000DF900895FC01DB01408151812281622F9B
:1009B0006F7770E0221F2227221F9381892F880FD3
:1009C000822B282F30E0991F9927991F11969C930D
:1009D000119721153105A9F54115510561057105DD
:1009E00011F482E037C082E89FEF13969C938E93B8
:1009F00012979A01AB0167E0220F331F441F551F66
:100A00006A95D1F783E08C930DC0220F331F441FEA
:100A1000551F12968D919C911397019713969C9355
:100A20008E931297203080E0380780E0480780E4FA
:100A3000580758F314962D933D934D935C93179755
:100A400008952F3F310579F4411551056105710570
:100A500019F484E08C93089564FF03C081E08C93C3
:100A600012C01C9210C02F57304013963C932E9307
:100A7000129783E08C9387E0440F551F661F771F02
:100A80008A95D1F7706414964D935D936D937C9322
:100A9000179708951F93DC01FB019C91923008F495
:100AA00047C08081823008F443C0943051F41196DD
:100AB0001C91843099F58181682F70E0611B710968
:100AC0003FC0843021F0923031F48230B9F181811D
:100AD000882389F12DC011961C9111978230F1F075
:100AE00081811817D9F412962D913C911397828128
:100AF00093818217930794F028173907BCF0149656
:100B00008D919D910D90BC91A02D248135814681C0
:100B10005781281739074A075B0718F4112341F05A
:100B20000AC082179307A407B50740F4112319F0F0
:100B300061E070E005C06FEF7FEF02C060E070E041
:100B4000CB011F910895DF93CF93CDB7DEB780918E
:100B500073018F5F80937301CF91DF910895DF93CD
:100B6000CF93CDB7DEB72C970FB6F894DEBF0FBE8C
:100B7000CDBF8F83CE01019699878887E4E6F1E0A7
:100B8000FB87EA87F6E0FC87EA85FB8500808A859B
:100B90009B8501969B878A87E885F98500828885F1
:100BA00099850196998788879C8591509C87EC85CB
:100BB000EE2351F7CE0101960E94732390917301A9
:100BC0008F819817D9F70E94D323109273012C9626
:100BD0000FB6F894DEBF0FBECDBFCF91DF91089561
:100BE0000F931F93DF93CF93CDB7DEB7CC5BD0408D
:100BF0000FB6F894DEBF0FBECDBFFE01EF54FF4F1E
:100C000081E090E0918380830E94D02280E690E092
:100C10000E9429229CC1FE01E155FF4F11821082E2
:100C20008DC1FE01E155FF4F008111810E941B1C07
:100C3000282FCE018D549F4FFC01E00FF11F208320
:100C4000FE01EB55FF4F80E090E0A8ECB2E480831A
:100C50009183A283B3838E010F551F4FFE01EB5585
:100C6000FF4F608171818281938120E030E04AEF03
:100C700054E40E941F02DC01CB01F80180839183C0
:100C8000A283B383FE01EF55FF4F608171818281A2
:100C9000938120E030E040E85FE30E9479038823FD
:100CA00044F4FE01E156FF4F81E090E091838083A0
:100CB00064C0FE01EF55FF4F608171818281938195
:100CC00020E03FEF4FE757E40E94190318160CF09D
:100CD00043C0FE01EB55FF4F60817181828193819A
:100CE00020E030E040E251E40E941F02DC01CB0131
:100CF0008E0101561F4FBC01CD010E944900DC014D
:100D0000CB01F801918380831FC0FE01E356FF4FA2
:100D100088EC90E091838083FE01E356FF4F808151
:100D200091810197F1F7FE01E356FF4F9183808394
:100D3000DE01A156BF4FFE01E156FF4F8081918138
:100D4000019711969C938E93FE01E156FF4F80818F
:100D500091810097D1F627C08E0101561F4FFE01E9
:100D6000EF55FF4F60817181828193810E9449001C
:100D7000DC01CB01F80191838083DE01A556BF4FD2
:100D8000FE01E156FF4F808191818D939C93FE017E
:100D9000E556FF4F808191810197F1F7FE01E556FD
:100DA000FF4F91838083FE01E155FF4F908181E0E9
:100DB000692F0E94522281E790E00E942922FE01C1
:100DC000E956FF4F80E090E0A8E4B3E4808391838C
:100DD000A283B3838E010D561F4FFE01E956FF4FCC
:100DE000608171818281938120E030E04AEF54E498
:100DF0000E941F02DC01CB01F80180839183A28352
:100E0000B383FE01ED56FF4F608171818281938132
:100E100020E030E040E85FE30E947903882344F457
:100E2000FE01EF56FF4F81E090E09183808364C024
:100E3000FE01ED56FF4F608171818281938120E038
:100E40003FEF4FE757E40E94190318160CF043C018
:100E5000FE01E956FF4F608171818281938120E01C
:100E600030E040E251E40E941F02DC01CB018E0120
:100E70000F561F4FBC01CD010E944900DC01CB0180
:100E8000F801918380831FC0FE01E157FF4F88EC7A
:100E900090E091838083FE01E157FF4F8081918133
:100EA0000197F1F7FE01E157FF4F91838083DE0147
:100EB000AF56BF4FFE01EF56FF4F808191810197E2
:100EC00011969C938E93FE01EF56FF4F8081918186
:100ED0000097D1F627C08E010F561F4FFE01ED5629
:100EE000FF4F60817181828193810E944900DC0102
:100EF000CB01F80191838083DE01A357BF4FFE0130
:100F0000EF56FF4F808191818D939C93FE01E357B3
:100F1000FF4F808191810197F1F7FE01E357FF4F69
:100F200091838083DE01A155BF4FFE01E155FF4F44
:100F300080819181019611969C938E93FE01E155DB
:100F4000FF4F80819181853091050CF46ACE0E941B
:100F50001B1C8D3309F05FCEFE01E757FF4F80E089
:100F600090E0A8E4B2E480839183A283B3838E01EE
:100F70000B571F4FFE01E757FF4F60817181828140
:100F8000938120E030E04AEF54E40E941F02DC012C
:100F9000CB01F80180839183A283B383FE01EB57D9
:100FA000FF4F608171818281938120E030E040E8D1
:100FB0005FE30E947903882344F4FE01ED57FF4F5D
:100FC00081E090E09183808364C0FE01EB57FF4F86
:100FD000608171818281938120E03FEF4FE757E488
:100FE0000E94190318160CF043C0FE01E757FF4F8B
:100FF000608171818281938120E030E040E251E4A0
:101000000E941F02DC01CB018E010D571F4FBC0156
:10101000CD010E944900DC01CB01F801918380835E
:101020001FC0FE01EF57FF4F88EC90E09183808353
:10103000FE01EF57FF4F808191810197F1F7FE018B
:10104000EF57FF4F91838083DE01AD57BF4FFE0105
:10105000ED57FF4F80819181019711969C938E935C
:10106000FE01ED57FF4F808191810097D1F627C097
:101070008E010D571F4FFE01EB57FF4F60817181AD
:10108000828193810E944900DC01CB01F8019183A8
:101090008083DE01A158BF4FFE01ED57FF4F8081D5
:1010A00091818D939C93FE01E158FF4F8081918146
:1010B0000197F1F7FE01E158FF4F918380830E9471
:1010C000D02280E060E00E94522283E790E00E94FC
:1010D000292281E060E00E94522284E890E00E9490
:1010E00029229EC1FE01E355FF4F118210828FC15C
:1010F000FE01E355FF4F008111810E941B1C282F28
:10110000CE0188549F4FFC01E00FF11F2083FE01A8
:10111000E558FF4F80E090E0A8ECB2E48083918333
:10112000A283B3838E0109581F4FFE01E558FF4F7C
:10113000608171818281938120E030E04AEF54E444
:101140000E941F02DC01CB01F80180839183A283FE
:10115000B383FE01E958FF4F6081718182819381E1
:1011600020E030E040E85FE30E947903882344F404
:10117000FE01EB58FF4F81E090E09183808364C0D3
:10118000FE01E958FF4F608171818281938120E0E7
:101190003FEF4FE757E40E94190318160CF043C0C5
:1011A000FE01E558FF4F608171818281938120E0CB
:1011B00030E040E251E40E941F02DC01CB018E01CD
:1011C0000B581F4FBC01CD010E944900DC01CB012F
:1011D000F801918380831FC0FE01ED58FF4F88EC1A
:1011E00090E091838083FE01ED58FF4F80819181D3
:1011F0000197F1F7FE01ED58FF4F91838083DE01E7
:10120000AB58BF4FFE01EB58FF4F80819181019792
:1012100011969C938E93FE01EB58FF4F8081918134
:101220000097D1F627C08E010B581F4FFE01E958D9
:10123000FF4F60817181828193810E944900DC01AE
:10124000CB01F80191838083DE01AF58BF4FFE01CF
:10125000EB58FF4F808191818D939C93FE01EF5855
:10126000FF4F808191810197F1F7FE01EF58FF4F09
:1012700091838083FE01E355FF4F8081982F955F16
:1012800081E0692F0E94522281E790E00E9429228A
:10129000FE01E359FF4F80E090E0A8E4B3E48083CF
:1012A0009183A283B3838E0107591F4FFE01E35937
:1012B000FF4F608171818281938120E030E04AEFAD
:1012C00054E40E941F02DC01CB01F801808391836A
:1012D000A283B383FE01E759FF4F60817181828150
:1012E000938120E030E040E85FE30E9479038823A7
:1012F00044F4FE01E959FF4F81E090E0918380833F
:1013000064C0FE01E759FF4F608171818281938142
:1013100020E03FEF4FE757E40E94190318160CF046
:1013200043C0FE01E359FF4F608171818281938147
:1013300020E030E040E251E40E941F02DC01CB01DA
:101340008E0109591F4FBC01CD010E944900DC01EB
:10135000CB01F801918380831FC0FE01EB59FF4F41
:1013600088EC90E091838083FE01EB59FF4F8081F0
:1013700091810197F1F7FE01EB59FF4F9183808333
:10138000DE01A959BF4FFE01E959FF4F80819181CC
:10139000019711969C938E93FE01E959FF4F80812E
:1013A00091810097D1F627C08E0109591F4FFE0188
:1013B000E759FF4F60817181828193810E944900CA
:1013C000DC01CB01F80191838083DE01AD59BF4F71
:1013D000FE01E959FF4F808191818D939C93FE011D
:1013E000ED59FF4F808191810197F1F7FE01ED5991
:1013F000FF4F91838083DE01A355BF4FFE01E3556C
:10140000FF4F80819181019611969C938E93FE01EE
:10141000E355FF4F80819181853091050CF468CEB2
:101420000E941B1C8D3309F05DCEFE01E15AFF4F77
:1014300080E090E0A8E4B2E480839183A283B38348
:101440008E01055A1F4FFE01E15AFF4F60817181E5
:101450008281938120E030E04AEF54E40E941F0231
:10146000DC01CB01F80180839183A283B383FE0169
:10147000E55AFF4F608171818281938120E030E0E5
:1014800040E85FE30E947903882344F4FE01E75AB1
:10149000FF4F81E090E09183808364C0FE01E55AB4
:1014A000FF4F608171818281938120E03FEF4FE7A0
:1014B00057E40E94190318160CF043C0FE01E15ACC
:1014C000FF4F608171818281938120E030E040E2B2
:1014D00051E40E941F02DC01CB018E01075A1F4F0D
:1014E000BC01CD010E944900DC01CB01F8019183D0
:1014F00080831FC0FE01E95AFF4F88EC90E0918382
:101500008083FE01E95AFF4F808191810197F1F7B5
:10151000FE01E95AFF4F91838083DE01A75ABF4F36
:10152000FE01E75AFF4F80819181019711969C93AC
:101530008E93FE01E75AFF4F808191810097D1F68B
:1015400027C08E01075A1F4FFE01E55AFF4F6081E9
:101550007181828193810E944900DC01CB01F801F5
:1015600091838083DE01AB5ABF4FFE01E75AFF4FE4
:10157000808191818D939C93FE01EB5AFF4F808176
:1015800091810197F1F7FE01EB5AFF4F9183808320
:1015900081E00E947F24FE01EF5AFF4F80E090E03F
:1015A000A0E2B1E480839183A283B3838E01035BC5
:1015B0001F4FFE01EF5AFF4F60817181828193813D
:1015C00020E030E04AEF54E40E941F02DC01CB012E
:1015D000F80180839183A283B383FE01E35BFF4F15
:1015E000608171818281938120E030E040E85FE397
:1015F0000E947903882344F4FE01E55BFF4F81E0FC
:1016000090E09183808364C0FE01E35BFF4F6081C3
:1016100071818281938120E03FEF4FE757E40E9480
:10162000190318160CF043C0FE01EF5AFF4F6081FA
:1016300071818281938120E030E040E251E40E9498
:101640001F02DC01CB018E01055B1F4FBC01CD01E8
:101650000E944900DC01CB01F801918380831FC007
:10166000FE01E75BFF4F88EC90E091838083FE01F1
:10167000E75BFF4F808191810197F1F7FE01E75B06
:10168000FF4F91838083DE01A55BBF4FFE01E55BC9
:10169000FF4F80819181019711969C938E93FE015B
:1016A000E55BFF4F808191810097D1F628C08E01C4
:1016B000055B1F4FFE01E35BFF4F608171818281FB
:1016C00093810E944900DC01CB01F8019183808362
:1016D000DE01A95BBF4FFE01E55BFF4F8081918179
:1016E00011969C938E93FE01E95BFF4F808191815F
:1016F0000197F1F7FE01E95BFF4F91838083FE01C3
:10170000E555FF4F118210829FC0FE01E555FF4F46
:1017100020813181CE018D549F4FFC01E20FF31FD8
:1017200080810E947F24FE01ED5BFF4F80E090E00E
:10173000A0E2B1E480839183A283B3838E01015C34
:101740001F4FFE01ED5BFF4F6081718182819381AC
:1017500020E030E04AEF54E40E941F02DC01CB019C
:10176000F80180839183A283B383FE01FF96608199
:1017700071818281938120E030E040E85FE30E9444
:10178000790388232CF481E090E09EAF8DAF46C0B2
:10179000FE01FF96608171818281938120E03FEF9D
:1017A0004FE757E40E941903181664F5FE01ED5B3C
:1017B000FF4F608171818281938120E030E040E2BF
:1017C00051E40E941F02DC01CB01BC01CD010E944B
:1017D0004900DC01CB019EAF8DAF0FC088EC90E0DB
:1017E0009CAF8BAF8BAD9CAD0197F1F79CAF8BAFEE
:1017F0008DAD9EAD01979EAF8DAF8DAD9EAD009727
:1018000069F716C0FE01FF96608171818281938124
:101810000E944900DC01CB019EAF8DAF8DAD9EAD26
:101820009AAF89AF89AD9AAD0197F1F79AAF89AFB9
:10183000DE01A555BF4FFE01E555FF4F8081918127
:10184000019611969C938E93FE01E555FF4F808182
:101850009181853091050CF458CFFE01E755FF4F7B
:10186000118210828CC0FE01E755FF4F208131812B
:10187000CE0188549F4FFC01E20FF31F80810E942C
:101880007F2480E090E0A0E2B1E48DAB9EABAFABF3
:10189000B8AF6DA97EA98FA998AD20E030E04AEFDE
:1018A00054E40E941F02DC01CB0189AB9AABABABC5
:1018B000BCAB69A97AA98BA99CA920E030E040E8DB
:1018C0005FE30E94790388232CF481E090E098ABD9
:1018D0008FA73FC069A97AA98BA99CA920E03FEFF7
:1018E0004FE757E40E94190318164CF56DA97EA91D
:1018F0008FA998AD20E030E040E251E40E941F0241
:10190000DC01CB01BC01CD010E944900DC01CB010F
:1019100098AB8FA70FC088EC90E09EA78DA78DA5F0
:101920009EA50197F1F79EA78DA78FA598A901976E
:1019300098AB8FA78FA598A9009769F714C069A9DC
:101940007AA98BA99CA90E944900DC01CB0198AB24
:101950008FA78FA598A99CA78BA78BA59CA501975E
:10196000F1F79CA78BA7DE01A755BF4FFE01E755F6
:10197000FF4F80819181019611969C938E93FE0179
:10198000E755FF4F80819181853091050CF46BCF35
:1019900080E090E0A8E4B2E48FA398A7A9A7BAA733
:1019A0006FA178A589A59AA520E030E04AEF54E41C
:1019B0000E941F02DC01CB018BA39CA3ADA3BEA39D
:1019C0006BA17CA18DA19EA120E030E040E85FE307
:1019D0000E94790388232CF481E090E09AA389A3E4
:1019E0003FC06BA17CA18DA19EA120E03FEF4FE7FE
:1019F00057E40E94190318164CF56FA178A589A524
:101A00009AA520E030E040E251E40E941F02DC0190
:101A1000CB01BC01CD010E944900DC01CB019AA39E
:101A200089A30FC088EC90E098A38F8F8F8D98A129
:101A30000197F1F798A38F8F89A19AA101979AA393
:101A400089A389A19AA1009769F714C06BA17CA111
:101A50008DA19EA10E944900DC01CB019AA389A31C
:101A600089A19AA19E8F8D8F8D8D9E8D0197F1F703
:101A70009E8F8D8F0E949624FE01EF54FF4F882F7A
:101A800090E09183808380E090E0A8E4B2E4898FC5
:101A90009A8FAB8FBC8F698D7A8D8B8D9C8D20E05A
:101AA00030E04AEF54E40E941F02DC01CB018D8B31
:101AB0009E8BAF8BB88F6D897E898F89988D20E042
:101AC00030E040E85FE30E94790388232CF481E052
:101AD00090E09C8B8B8B3FC06D897E898F89988D20
:101AE00020E03FEF4FE757E40E94190318164CF52A
:101AF000698D7A8D8B8D9C8D20E030E040E251E441
:101B00000E941F02DC01CB01BC01CD010E944900F3
:101B1000DC01CB019C8B8B8B0FC088EC90E09A8B07
:101B2000898B89899A890197F1F79A8B898B8B899F
:101B30009C8901979C8B8B8B8B899C89009769F77B
:101B400014C06D897E898F89988D0E944900DC01BF
:101B5000CB019C8B8B8B8B899C89988B8F878F85F6
:101B600098890197F1F7988B8F87FE01EF54FF4F0B
:101B7000808191818130910509F083C010927401B8
:101B80000E94D02280E990E00E94292282E00E94F7
:101B9000AF0582E00E947F2480E090E0A0E2B1E403
:101BA0008B879C87AD87BE876B857C858D859E8561
:101BB00020E030E04AEF54E40E941F02DC01CB0138
:101BC0008F839887A987BA876F81788589859A8559
:101BD00020E030E040E85FE30E94790388232CF4A2
:101BE00081E090E09E838D833FC06F8178858985F9
:101BF0009A8520E03FEF4FE757E40E94190318163B
:101C00004CF56B857C858D859E8520E030E040E23B
:101C100051E40E941F02DC01CB01BC01CD010E94F6
:101C20004900DC01CB019E838D830FC088EC90E0DE
:101C30009C838B838B819C810197F1F79C838B83A1
:101C40008D819E8101979E838D838D819E810097DA
:101C500069F714C06F81788589859A850E9449004B
:101C6000DC01CB019E838D838D819E819A83898344
:101C700089819A810197F1F79A8389830E942415BB
:101C800011C00E94D02280EA90E00E94292281E0C7
:101C900064E00E9452228FEA90E00E94292283E0B1
:101CA0000E94AF05C454DF4F0FB6F894DEBF0FBEDD
:101CB000CDBFCF91DF911F910F9108950F931F9387
:101CC000DF93CF93CDB7DEB7C759D0400FB6F894A6
:101CD000DEBF0FBECDBFCE018D569F4F25E0FC016C
:101CE000DF01822F1D928A95E9F70E94D02285EBB1
:101CF00090E00E94292281E060E00E94522284EC60
:101D000090E00E942922FE01E757FF4F80E090E01B
:101D1000A0E2B1E480839183A283B3838E010B5749
:101D20001F4FFE01E757FF4F6081718182819381D0
:101D300020E030E04AEF54E40E941F02DC01CB01B6
:101D4000F80180839183A283B383FE01EB57FF4F99
:101D5000608171818281938120E030E040E85FE31F
:101D60000E947903882344F4FE01ED57FF4F81E080
:101D700090E09183808364C0FE01EB57FF4F608148
:101D800071818281938120E03FEF4FE757E40E9409
:101D9000190318160CF043C0FE01E757FF4F60818E
:101DA00071818281938120E030E040E251E40E9421
:101DB0001F02DC01CB018E010D571F4FBC01CD016D
:101DC0000E944900DC01CB01F801918380831FC090
:101DD000FE01EF57FF4F88EC90E091838083FE0176
:101DE000EF57FF4F808191810197F1F7FE01EF5787
:101DF000FF4F91838083DE01AD57BF4FFE01ED574A
:101E0000FF4F80819181019711969C938E93FE01E3
:101E1000ED57FF4F808191810097D1F6C7C18E01A8
:101E20000D571F4FFE01EB57FF4F6081718182817B
:101E300093810E944900DC01CB01F80191838083EA
:101E4000DE01A158BF4FFE01ED57FF4F8081918108
:101E500011969C938E93FE01E158FF4F80819181F2
:101E60000197F1F7FE01E158FF4F918380839EC1F6
:101E7000FE01E157FF4F118210828FC1FE01E15731
:101E8000FF4F008111810E941B1C282FCE018D560F
:101E90009F4FFC01E00FF11F2083FE01E558FF4F2B
:101EA00080E090E0A8ECB2E480839183A283B383C6
:101EB0008E0109581F4FFE01E558FF4F6081718167
:101EC0008281938120E030E04AEF54E40E941F02B7
:101ED000DC01CB01F80180839183A283B383FE01EF
:101EE000E958FF4F608171818281938120E030E069
:101EF00040E85FE30E947903882344F4FE01EB5835
:101F0000FF4F81E090E09183808364C0FE01E95837
:101F1000FF4F608171818281938120E03FEF4FE725
:101F200057E40E94190318160CF043C0FE01E5584F
:101F3000FF4F608171818281938120E030E040E237
:101F400051E40E941F02DC01CB018E010B581F4F90
:101F5000BC01CD010E944900DC01CB01F801918355
:101F600080831FC0FE01ED58FF4F88EC90E0918305
:101F70008083FE01ED58FF4F808191810197F1F739
:101F8000FE01ED58FF4F91838083DE01AB58BF4FB8
:101F9000FE01EB58FF4F80819181019711969C9330
:101FA0008E93FE01EB58FF4F808191810097D1F60F
:101FB00027C08E010B581F4FFE01E958FF4F60816B
:101FC0007181828193810E944900DC01CB01F8017B
:101FD00091838083DE01AF58BF4FFE01EB58FF4F66
:101FE000808191818D939C93FE01EF58FF4F8081FA
:101FF00091810197F1F7FE01EF58FF4F91838083A4
:10200000FE01E157FF4F8081982F995F81E0692F92
:102010000E94522281E790E00E942922FE01E359AA
:10202000FF4F80E090E0A8E4B3E480839183A28333
:10203000B3838E0107591F4FFE01E359FF4F6081A3
:1020400071818281938120E030E04AEF54E40E9464
:102050001F02DC01CB01F80180839183A283B3834B
:10206000FE01E759FF4F608171818281938120E0F9
:1020700030E040E85FE30E947903882344F4FE01E6
:10208000E959FF4F81E090E09183808364C0FE01B5
:10209000E759FF4F608171818281938120E03FEF9A
:1020A0004FE757E40E94190318160CF043C0FE01D5
:1020B000E359FF4F608171818281938120E030E09C
:1020C00040E251E40E941F02DC01CB018E0109595C
:1020D0001F4FBC01CD010E944900DC01CB01F8017A
:1020E000918380831FC0FE01EB59FF4F88EC90E085
:1020F00091838083FE01EB59FF4F8081918101978D
:10210000F1F7FE01EB59FF4F91838083DE01A9595E
:10211000BF4FFE01E959FF4F8081918101971196D0
:102120009C938E93FE01E959FF4F80819181009726
:10213000D1F627C08E0109591F4FFE01E759FF4F05
:1021400060817181828193810E944900DC01CB0111
:10215000F80191838083DE01AD59BF4FFE01E9593B
:10216000FF4F808191818D939C93FE01ED59FF4F2C
:10217000808191810197F1F7FE01ED59FF4F918325
:102180008083DE01A157BF4FFE01E157FF4F8081E1
:102190009181019611969C938E93FE01E157FF4F1A
:1021A00080819181853091050CF468CE0E941B1CC2
:1021B0008D3309F05DCEFE01E15AFF4F80E090E0E3
:1021C000A8ECB2E480839183A283B3838E01055A85
:1021D0001F4FFE01E15AFF4F60817181828193811F
:1021E00020E030E04AEF54E40E941F02DC01CB0102
:1021F000F80180839183A283B383FE01E55AFF4FE8
:10220000608171818281938120E030E040E85FE36A
:102210000E947903882344F4FE01E75AFF4F81E0CE
:1022200090E09183808364C0FE01E55AFF4F608196
:1022300071818281938120E03FEF4FE757E40E9454
:10224000190318160CF043C0FE01E15AFF4F6081DC
:1022500071818281938120E030E040E251E40E946C
:102260001F02DC01CB018E01075A1F4FBC01CD01BB
:102270000E944900DC01CB01F801918380831FC0DB
:10228000FE01E95AFF4F88EC90E091838083FE01C4
:10229000E95AFF4F808191810197F1F7FE01E95AD8
:1022A000FF4F91838083DE01A75ABF4FFE01E75A9B
:1022B000FF4F80819181019711969C938E93FE012F
:1022C000E75AFF4F808191810097D1F627C08E0198
:1022D000075A1F4FFE01E55AFF4F608171818281CD
:1022E00093810E944900DC01CB01F8019183808336
:1022F000DE01AB5ABF4FFE01E75AFF4F808191814B
:102300008D939C93FE01EB5AFF4F80819181019741
:10231000F1F7FE01EB5AFF4F9183808383E00E9427
:102320007F24FE01EF5AFF4F80E090E0A0EAB1E485
:1023300080839183A283B3838E01035B1F4FFE01D1
:10234000EF5AFF4F608171818281938120E030E0FC
:102350004AEF54E40E941F02DC01CB01F8018083A4
:102360009183A283B383FE01E35BFF4F60817181A0
:102370008281938120E030E040E85FE30E947903AE
:10238000882344F4FE01E55BFF4F81E090E09183F8
:10239000808364C0FE01E35BFF4F608171818281B5
:1023A000938120E03FEF4FE757E40E94190318168E
:1023B0000CF043C0FE01EF5AFF4F608171818281B2
:1023C000938120E030E040E251E40E941F02DC01F2
:1023D000CB018E01055B1F4FBC01CD010E9449005E
:1023E000DC01CB01F801918380831FC0FE01E75B14
:1023F000FF4F88EC90E091838083FE01E75BFF4F05
:10240000808191810197F1F7FE01E75BFF4F918396
:102410008083DE01A55BBF4FFE01E55BFF4F80813E
:102420009181019711969C938E93FE01E55BFF4F7E
:10243000808191810097D1F628C08E01055B1F4FE6
:10244000FE01E35BFF4F60817181828193810E9475
:102450004900DC01CB01F80191838083DE01A95B97
:10246000BF4FFE01E55BFF4F8081918111969C93E8
:102470008E93FE01E95BFF4F808191810197F1F717
:10248000FE01E95BFF4F91838083FE01E357FF4F1D
:10249000118210829FC0FE01E357FF4F20813181DE
:1024A000CE018D569F4FFC01E20FF31F80810E94E9
:1024B0007F24FE01ED5BFF4F80E090E0A0EAB1E4F5
:1024C00080839183A283B3838E01015C1F4FFE0141
:1024D000ED5BFF4F608171818281938120E030E06C
:1024E0004AEF54E40E941F02DC01CB01F801808313
:1024F0009183A283B383FE01FF9660817181828103
:10250000938120E030E040E85FE30E947903882374
:102510002CF481E090E09EAF8DAF46C0FE01FF96A7
:10252000608171818281938120E03FEF4FE757E422
:102530000E941903181664F5FE01ED5BFF4F6081E0
:1025400071818281938120E030E040E251E40E9479
:102550001F02DC01CB01BC01CD010E944900DC015E
:10256000CB019EAF8DAF0FC088EC90E09CAF8BAFDE
:102570008BAD9CAD0197F1F79CAF8BAF8DAD9EAD50
:1025800001979EAF8DAF8DAD9EAD009769F716C0D8
:10259000FE01FF9660817181828193810E944900D2
:1025A000DC01CB019EAF8DAF8DAD9EAD9AAF89AFF3
:1025B00089AD9AAD0197F1F79AAF89AFDE01A357C4
:1025C000BF4FFE01E357FF4F808191810196119625
:1025D0009C938E93FE01E357FF4F8081918185305C
:1025E00091050CF458CF80E090E0AAE7B3E48DABFE
:1025F0009EABAFABB8AF6DA97EA98FA998AD20E017
:1026000030E04AEF54E40E941F02DC01CB0189ABA9
:102610009AABABABBCAB69A97AA98BA99CA920E00A
:1026200030E040E85FE30E94790388232CF481E0E6
:1026300090E098AB8FA73FC069A97AA98BA99CA904
:1026400020E03FEF4FE757E40E94190318164CF5BE
:102650006DA97EA98FA998AD20E030E040E251E459
:102660000E941F02DC01CB01BC01CD010E94490088
:10267000DC01CB0198AB8FA70FC088EC90E09EA740
:102680008DA78DA59EA50197F1F79EA78DA78FA574
:1026900098A9019798AB8FA78FA598A9009769F77C
:1026A00014C069A97AA98BA99CA90E944900DC01E0
:1026B000CB0198AB8FA78FA598A99CA78BA78BA5BB
:1026C0009CA50197F1F79CA78BA70E949624FE0179
:1026D000EF56FF4F882F90E09183808380E090E059
:1026E000A0EAB1E48FA398A7A9A7BAA76FA178A57C
:1026F00089A59AA520E030E04AEF54E40E941F0229
:10270000DC01CB018BA39CA3ADA3BEA36BA17CA1D9
:102710008DA19EA120E030E040E85FE30E947903B4
:1027200088232CF481E090E09AA389A33FC06BA199
:102730007CA18DA19EA120E03FEF4FE757E40E94CE
:10274000190318164CF56FA178A589A59AA520E064
:1027500030E040E251E40E941F02DC01CB01BC01E9
:10276000CD010E944900DC01CB019AA389A30FC0CF
:1027700088EC90E098A38F8F8F8D98A10197F1F747
:1027800098A38F8F89A19AA101979AA389A389A160
:102790009AA1009769F714C06BA17CA18DA19EA19D
:1027A0000E944900DC01CB019AA389A389A19AA1C7
:1027B0009E8F8D8F8D8D9E8D0197F1F79E8F8D8FC2
:1027C000FE01EF56FF4F808191818130910509F024
:1027D0008CC0809172018B3241F481E0809363015F
:1027E0000E941E170E94241523C1809172018D3210
:1027F00009F01EC181E08093630185E00E947F247F
:1028000080E090E0A0E2B1E4898F9A8FAB8FBC8F1B
:10281000698D7A8D8B8D9C8D20E030E04AEF54E4F9
:102820000E941F02DC01CB018D8B9E8BAF8BB88F7A
:102830006D897E898F89988D20E030E040E85FE3E4
:102840000E94790388232CF481E090E09C8B8B8B91
:102850003FC06D897E898F89988D20E03FEF4FE7DB
:1028600057E40E94190318164CF5698D7A8D8B8DEB
:102870009C8D20E030E040E251E40E941F02DC0128
:10288000CB01BC01CD010E944900DC01CB019C8B36
:102890008B8B0FC088EC90E09A8B898B89899A8901
:1028A0000197F1F79A8B898B8B899C8901979C8B77
:1028B0008B8B8B899C89009769F714C06D897E8901
:1028C0008F89988D0E944900DC01CB019C8B8B8BFA
:1028D0008B899C89988B8F878F8598890197F1F7D1
:1028E000988B8F870E94D617A3C0FE01EF56FF4F2B
:1028F00080819181009709F09BC0809163018F5F77
:102900008093630180916301843008F088C00E9445
:10291000D02280E061E00E9452228BEC90E00E9485
:10292000292281E061E00E9452228AED90E00E941B
:10293000292280E090E0AAE7B4E48B879C87AD87EA
:10294000BE876B857C858D859E8520E030E04AEFD3
:1029500054E40E941F02DC01CB018F839887A98772
:10296000BA876F81788589859A8520E030E040E8D4
:102970005FE30E94790388232CF481E090E09E833A
:102980008D833FC06F81788589859A8520E03FEFF0
:102990004FE757E40E94190318164CF56B857C85A8
:1029A0008D859E8520E030E040E251E40E941F02C8
:1029B000DC01CB01BC01CD010E944900DC01CB014F
:1029C0009E838D830FC088EC90E09C838B838B81EA
:1029D0009C810197F1F79C838B838D819E81019768
:1029E0009E838D838D819E81009769F714C06F81CE
:1029F000788589859A850E944900DC01CB019E83F8
:102A00008D838D819E819A83898389819A810197A3
:102A1000F1F79A83898381E08093740109C081E092
:102A200080936301109274010E94DF170E942415A5
:102A3000C956DF4F0FB6F894DEBF0FBECDBFCF91A2
:102A4000DF911F910F910895DF93CF93CDB7DEB73C
:102A5000E8970FB6F894DEBF0FBECDBF0E94D0221C
:102A600080E060E00E94522288EE90E00E942922DD
:102A700081E060E00E94522286EF90E00E942922CD
:102A800080E090E0A8E4B2E48DAB9EABAFABB8AF12
:102A90006DA97EA98FA998AD20E030E04AEF54E4FB
:102AA0000E941F02DC01CB0189AB9AABABABBCAB84
:102AB00069A97AA98BA99CA920E030E040E85FE3EE
:102AC0000E94790388232CF481E090E098AB8FA7D3
:102AD0003FC069A97AA98BA99CA920E03FEF4FE7E5
:102AE00057E40E94190318164CF56DA97EA98FA909
:102AF00098AD20E030E040E251E40E941F02DC018A
:102B0000CB01BC01CD010E944900DC01CB0198AB97
:102B10008FA70FC088EC90E09EA78DA78DA59EA5DE
:102B20000197F1F79EA78DA78FA598A9019798AB5C
:102B30008FA78FA598A9009769F714C069A97AA9EA
:102B40008BA99CA90E944900DC01CB0198AB8FA7FF
:102B50008FA598A99CA78BA78BA59CA50197F1F79A
:102B60009CA78BA70E941B1C8093720180E090E0C1
:102B7000A0EAB1E48FA398A7A9A7BAA76FA178A5E7
:102B800089A59AA520E030E04AEF54E40E941F0294
:102B9000DC01CB018BA39CA3ADA3BEA36BA17CA145
:102BA0008DA19EA120E030E040E85FE30E94790320
:102BB00088232CF481E090E09AA389A33FC06BA105
:102BC0007CA18DA19EA120E03FEF4FE757E40E943A
:102BD000190318164CF56FA178A589A59AA520E0D0
:102BE00030E040E251E40E941F02DC01CB01BC0155
:102BF000CD010E944900DC01CB019AA389A30FC03B
:102C000088EC90E098A38F8F8F8D98A10197F1F7B2
:102C100098A38F8F89A19AA101979AA389A389A1CB
:102C20009AA1009769F714C06BA17CA18DA19EA108
:102C30000E944900DC01CB019AA389A389A19AA132
:102C40009E8F8D8F8D8D9E8D0197F1F79E8F8D8F2D
:102C500082E00E947F2480E090E0A0EAB1E4898FC6
:102C60009A8FAB8FBC8F698D7A8D8B8D9C8D20E078
:102C700030E04AEF54E40E941F02DC01CB018D8B4F
:102C80009E8BAF8BB88F6D897E898F89988D20E060
:102C900030E040E85FE30E94790388232CF481E070
:102CA00090E09C8B8B8B3FC06D897E898F89988D3E
:102CB00020E03FEF4FE757E40E94190318164CF548
:102CC000698D7A8D8B8D9C8D20E030E040E251E45F
:102CD0000E941F02DC01CB01BC01CD010E94490012
:102CE000DC01CB019C8B8B8B0FC088EC90E09A8B26
:102CF000898B89899A890197F1F79A8B898B8B89BE
:102D00009C8901979C8B8B8B8B899C89009769F799
:102D100014C06D897E898F89988D0E944900DC01DD
:102D2000CB019C8B8B8B8B899C89988B8F878F8514
:102D300098890197F1F7988B8F87809172010E9493
:102D40007F2480E090E0A0EAB1E48B879C87AD8788
:102D5000BE876B857C858D859E8520E030E04AEFBF
:102D600054E40E941F02DC01CB018F839887A9875E
:102D7000BA876F81788589859A8520E030E040E8C0
:102D80005FE30E94790388232CF481E090E09E8326
:102D90008D833FC06F81788589859A8520E03FEFDC
:102DA0004FE757E40E94190318164CF56B857C8594
:102DB0008D859E8520E030E040E251E40E941F02B4
:102DC000DC01CB01BC01CD010E944900DC01CB013B
:102DD0009E838D830FC088EC90E09C838B838B81D6
:102DE0009C810197F1F79C838B838D819E81019754
:102DF0009E838D838D819E81009769F714C06F81BA
:102E0000788589859A850E944900DC01CB019E83E3
:102E10008D838D819E819A83898389819A8101978F
:102E2000F1F79A8389830E945E0EE8960FB6F894B4
:102E3000DEBF0FBECDBFCF91DF910895DF93CF935B
:102E4000CDB7DEB72E970FB6F894DEBF0FBECDBF5D
:102E500084E00E947F2480E090E0A0E2B1E48B87D0
:102E60009C87AD87BE876B857C858D859E8520E0A0
:102E700030E04AEF54E40E941F02DC01CB018F8353
:102E80009887A987BA876F81788589859A8520E098
:102E900030E040E85FE30E94790388232CF481E06E
:102EA00090E09E838D833FC06F81788589859A8568
:102EB00020E03FEF4FE757E40E94190318164CF546
:102EC0006B857C858D859E8520E030E040E251E475
:102ED0000E941F02DC01CB01BC01CD010E94490010
:102EE000DC01CB019E838D830FC088EC90E09C8336
:102EF0008B838B819C810197F1F79C838B838D81E0
:102F00009E8101979E838D838D819E81009769F7B5
:102F100014C06F81788589859A850E944900DC01FB
:102F2000CB019E838D838D819E819A838983898144
:102F30009A810197F1F79A8389830E94D02226E033
:102F400031E080E061E0A9010E9494228FE00E94BC
:102F5000AF050E94D02225E131E080E060E0A901C8
:102F60000E94942285E00E94AF050E94D02226E2B2
:102F700031E080E061E0A9010E9494228FE00E948C
:102F8000AF050E94D02223E331E080E061E0A90197
:102F90000E94942283E00E94AF052E960FB6F8940B
:102FA000DEBF0FBECDBFCF91DF910895DF93CF93EA
:102FB000CDB7DEB70E94F005CF91DF910895DF9382
:102FC000CF93CDB7DEB760970FB6F894DEBF0FBED4
:102FD000CDBF86E00E947F2480E090E0A0E2B1E4D3
:102FE0008B879C87AD87BE876B857C858D859E850D
:102FF00020E030E04AEF54E40E941F02DC01CB01E4
:103000008F839887A987BA876F81788589859A8504
:1030100020E030E040E85FE30E94790388232CF44D
:1030200081E090E09E838D833FC06F8178858985A4
:103030009A8520E03FEF4FE757E40E9419031816E6
:103040004CF56B857C858D859E8520E030E040E2E7
:1030500051E40E941F02DC01CB01BC01CD010E94A2
:103060004900DC01CB019E838D830FC088EC90E08A
:103070009C838B838B819C810197F1F79C838B834D
:103080008D819E8101979E838D838D819E81009786
:1030900069F714C06F81788589859A850E944900F7
:1030A000DC01CB019E838D838D819E819A838983F0
:1030B00089819A810197F1F79A8389830E94D022AE
:1030C00080E060E00E94522282E491E00E94292286
:1030D00081E060E00E94522283E591E00E94292273
:1030E0008AE090E0988B8F8714C081E067E00E94AF
:1030F00052228F8598890E94AD2289E591E00E9435
:10310000292281E00E94AF058F8598890197988BCD
:103110008F878F859889992344F760960FB6F89426
:10312000DEBF0FBECDBFCF91DF910895DF93CF9368
:10313000CDB7DEB72C970FB6F894DEBF0FBECDBF6C
:10314000AFE5B0E0EFE5F0E0808180688C930E940D
:10315000AF1D83EA95E00E94E323CE010196998793
:103160008887EAE6F1E0FB87EA87F7E0FC87EA85F3
:10317000FB8500808A859B8501969B878A87E885E9
:10318000F9850082888599850196998788879C852D
:1031900091509C87EC85EE2351F7CE0101960E9459
:1031A000F5230E9496240E94F00502C00E945E0E44
:1031B000809174018130D1F3F6CFDF93CF9300D0AB
:1031C00000D00F92CDB7DEB789836A834B838A81A3
:1031D000883008F0D5C08981843008F0D1C0898159
:1031E000282F30E03D832C838C819D818130910597
:1031F00009F443C02C813D81223031052CF48C81AF
:103200009D81009771F0BCC02C813D812230310539
:1032100009F45FC08C819D818330910509F485C0DC
:10322000AFC08B818130A1F4AAE3B0E0EAE3F0E023
:103230008081482F8A81282F30E081E090E0022EA3
:1032400002C0880F991F0A94E2F7842B8C9398C0D0
:10325000AAE3B0E0EAE3F0E08081482F8A81282FDA
:1032600030E081E090E0022E02C0880F991F0A949E
:10327000E2F7809584238C9383C08B818130A1F405
:10328000A7E3B0E0E7E3F0E08081482F8A81282FB0
:1032900030E081E090E0022E02C0880F991F0A946E
:1032A000E2F7842B8C936CC0A7E3B0E0E7E3F0E097
:1032B0008081482F8A81282F30E081E090E0022E23
:1032C00002C0880F991F0A94E2F7809584238C939B
:1032D00057C08B818130A1F4A4E3B0E0E4E3F0E0D7
:1032E0008081482F8A81282F30E081E090E0022EF3
:1032F00002C0880F991F0A94E2F7842B8C9340C078
:10330000A4E3B0E0E4E3F0E08081482F8A81282F35
:1033100030E081E090E0022E02C0880F991F0A94ED
:10332000E2F7809584238C932BC08B818130A1F4AC
:10333000A1E3B0E0E1E3F0E08081482F8A81282F0B
:1033400030E081E090E0022E02C0880F991F0A94BD
:10335000E2F7842B8C9314C0A1E3B0E0E1E3F0E04A
:103360008081482F8A81282F30E081E090E0022E72
:1033700002C0880F991F0A94E2F7809584238C93EA
:103380000F900F900F900F900F90CF91DF910895B5
:10339000DF93CF9300D000D00F92CDB7DEB78983F3
:1033A0006A834B838A81883008F0D5C08981843054
:1033B00008F0D1C08981282F30E03D832C838C8197
:1033C0009D818130910509F443C02C813D812230DB
:1033D00031052CF48C819D81009771F0BCC02C814B
:1033E0003D812230310509F45FC08C819D8183309D
:1033F000910509F485C0AFC08B818130A1F4ABE3A6
:10340000B0E0EBE3F0E08081482F8A81282F30E0A4
:1034100081E090E0022E02C0880F991F0A94E2F723
:10342000842B8C9398C0ABE3B0E0EBE3F0E08081B9
:10343000482F8A81282F30E081E090E0022E02C0E0
:10344000880F991F0A94E2F7809584238C9383C098
:103450008B818130A1F4A8E3B0E0E8E3F0E0808163
:10346000482F8A81282F30E081E090E0022E02C0B0
:10347000880F991F0A94E2F7842B8C936CC0A8E301
:10348000B0E0E8E3F0E08081482F8A81282F30E027
:1034900081E090E0022E02C0880F991F0A94E2F7A3
:1034A000809584238C9357C08B818130A1F4A5E350
:1034B000B0E0E5E3F0E08081482F8A81282F30E0FA
:1034C00081E090E0022E02C0880F991F0A94E2F773
:1034D000842B8C9340C0A5E3B0E0E5E3F0E080816D
:1034E000482F8A81282F30E081E090E0022E02C030
:1034F000880F991F0A94E2F7809584238C932BC040
:103500008B818130A1F4A2E3B0E0E2E3F0E08081BE
:10351000482F8A81282F30E081E090E0022E02C0FF
:10352000880F991F0A94E2F7842B8C9314C0A2E3AE
:10353000B0E0E2E3F0E08081482F8A81282F30E07C
:1035400081E090E0022E02C0880F991F0A94E2F7F2
:10355000809584238C930F900F900F900F900F9075
:10356000CF91DF910895DF93CF9300D000D00F92D9
:10357000CDB7DEB78A836B8319828B81883008F0E0
:1035800084C08A81843008F080C08A81282F30E08E
:103590003D832C834C815D814130510579F18C81D3
:1035A0009D818230910534F42C813D8121153105B6
:1035B00069F06BC04C815D8142305105B9F18C815D
:1035C0009D818330910509F449C05FC0E9E3F0E0D3
:1035D0008081282F30E08B81882F90E0A90102C0E4
:1035E000559547958A95E2F7CA01817090708823B6
:1035F00019F081E0898349C0198247C0E6E3F0E011
:103600008081282F30E08B81882F90E0A90102C0B3
:10361000559547958A95E2F7CA0181709070882385
:1036200019F081E0898331C019822FC0E3E3F0E013
:103630008081282F30E08B81882F90E0A90102C083
:10364000559547958A95E2F7CA0181709070882355
:1036500019F081E0898319C0198217C0E0E3F0E016
:103660008081282F30E08B81882F90E0A90102C053
:10367000559547958A95E2F7CA0181709070882325
:1036800019F081E0898301C0198289810F900F9020
:103690000F900F900F90CF91DF910895DF93CF930C
:1036A00000D000D0CDB7DEB789836A8389818430AA
:1036B00090F58981282F30E03C832B838B819C817E
:1036C00081309105D1F02B813C81223031052CF4E1
:1036D0008B819C81009761F01EC02B813C81223040
:1036E000310581F08B819C818330910581F013C07D
:1036F000EAE3F0E08A8180830EC0E7E3F0E08A81AC
:10370000808309C0E4E3F0E08A81808304C0E1E3C0
:10371000F0E08A8180830F900F900F900F90CF91EF
:10372000DF910895DF93CF9300D000D0CDB7DEB7FF
:1037300089836A838981843090F58981282F30E0DC
:103740003C832B838B819C8181309105D1F02B812F
:103750003C81223031052CF48B819C81009761F0F3
:103760001EC02B813C812230310581F08B819C81F0
:103770008330910581F013C0EBE3F0E08A81808310
:103780000EC0E8E3F0E08A81808309C0E5E3F0E061
:103790008A81808304C0E2E3F0E08A8180830F9015
:1037A0000F900F900F90CF91DF910895DF93CF93FB
:1037B00000D000D0CDB7DEB78A8319828A818430E9
:1037C00090F58A81282F30E03C832B838B819C816C
:1037D00081309105D1F02B813C81223031052CF4D0
:1037E0008B819C81009761F01EC02B813C8122302F
:1037F000310581F08B819C818330910581F013C06C
:10380000E9E3F0E0808189830EC0E6E3F0E08081A7
:10381000898309C0E3E3F0E08081898304C0E0E3A9
:10382000F0E08081898389810F900F900F900F9035
:10383000CF91DF910895DF93CF93CDB7DEB7609737
:103840000FB6F894DEBF0FBECDBF81E064E040E06C
:103850000E94DD1881E065E040E00E94DD1881E013
:1038600066E040E00E94DD1881E067E040E00E94F1
:10387000DD1883E062E040E00E94DD1883E063E051
:1038800040E00E94DD1883E064E040E00E94DD1823
:1038900083E065E040E00E94DD181F86B4C08F859C
:1038A000982F9C5F81E0692F41E00E94DD188F8591
:1038B000982F9C5F81E0692F40E00E94C819188A08
:1038C00022C08889982F9E5F83E0692F0E94B31AD7
:1038D0008823B1F48F85882F90E0880F991F880F77
:1038E000991F982F8889890F8F5F0E94081D609605
:1038F0000FB6F894DEBF0FBECDBFCF91DF91089514
:1039000088898F5F888B88898430D8F28F85982F3B
:103910009C5F81E0692F40E00E94DD1880E090E02C
:10392000A0EAB0E48B879C87AD87BE876B857C85DA
:103930008D859E8520E030E04AEF54E40E941F020E
:10394000DC01CB018F839887A987BA876F8178853F
:1039500089859A8520E030E040E85FE30E947903A2
:1039600088232CF481E090E09E838D833FC06F819B
:10397000788589859A8520E03FEF4FE757E40E94DC
:10398000190318164CF56B857C858D859E8520E086
:1039900030E040E251E40E941F02DC01CB01BC0197
:1039A000CD010E944900DC01CB019E838D830FC0B5
:1039B00088EC90E09C838B838B819C810197F1F74D
:1039C0009C838B838D819E8101979E838D838D81C6
:1039D0009E81009769F714C06F81788589859A85E3
:1039E0000E944900DC01CB019E838D838D819E81E5
:1039F0009A83898389819A810197F1F79A838983D0
:103A00008F858F5F8F878F85843008F448CF45CFAF
:103A1000DF93CF9300D000D0CDB7DEB78A83198271
:103A20008A81282F30E03C832B838B819C818830D6
:103A3000910509F470C02B813C81293031055CF57A
:103A40008B819C818430910509F459C02B813C8184
:103A5000253031059CF48B819C818230910509F4DD
:103A600048C02B813C81233031050CF045C08B814F
:103A70009C818130910509F439C067C02B813C815C
:103A80002630310509F441C08B819C818730910536
:103A90000CF03EC037C02B813C812C30310509F43D
:103AA00046C08B819C818D3091055CF42B813C81DB
:103AB0002A303105B1F18B819C818B309105A4F5C1
:103AC0002DC02B813C812E303105B9F18B819C8139
:103AD0008E3091057CF12B813C812F30310579F1BD
:103AE0008B819C818031910569F12FC087E08983AA
:103AF0002EC088E089832BC089E0898328C085E2B5
:103B0000898325C084E0898322C085E089831FC022
:103B100086E089831CC08AE2898319C081E0898399
:103B200016C082E0898313C083E0898310C08DE2D0
:103B300089830DC08DE089830AC0198208C08DE396
:103B4000898305C08BE2898302C08A818983898148
:103B50000F900F900F900F90CF91DF910895DF930A
:103B6000CF93CDB7DEB72E970FB6F894DEBF0FBE5A
:103B7000CDBF81E060E041E00E94DD1881E061E0BE
:103B800041E00E94DD1880E090E0A0EAB1E48B877C
:103B90009C87AD87BE876B857C858D859E8520E063
:103BA00030E04AEF54E40E941F02DC01CB018F8316
:103BB0009887A987BA876F81788589859A8520E05B
:103BC00030E040E85FE30E94790388232CF481E031
:103BD00090E09E838D833FC06F81788589859A852B
:103BE00020E03FEF4FE757E40E94190318164CF509
:103BF0006B857C858D859E8520E030E040E251E438
:103C00000E941F02DC01CB01BC01CD010E944900D2
:103C1000DC01CB019E838D830FC088EC90E09C83F8
:103C20008B838B819C810197F1F79C838B838D81A2
:103C30009E8101979E838D838D819E81009769F778
:103C400014C06F81788589859A850E944900DC01BE
:103C5000CB019E838D838D819E819A838983898107
:103C60009A810197F1F79A83898380E06FEF0E9430
:103C70004E1B88E30E944B1E8CE00E944B1E81E08D
:103C80000E944B1E2E960FB6F894DEBF0FBECDBF1E
:103C9000CF91DF910895DF93CF93CDB7DEB7E9974A
:103CA0000FB6F894DEBF0FBECDBF89AF81E060E0F4
:103CB00040E00E94C81980E090E0A0E8BFE38DAB2F
:103CC0009EABAFABB8AF6DA97EA98FA998AD20E030
:103CD00030E04AEF54E40E941F02DC01CB0189ABC3
:103CE0009AABABABBCAB69A97AA98BA99CA920E024
:103CF00030E040E85FE30E94790388232CF481E000
:103D000090E098AB8FA73FC069A97AA98BA99CA91D
:103D100020E03FEF4FE757E40E94190318164CF5D7
:103D20006DA97EA98FA998AD20E030E040E251E472
:103D30000E941F02DC01CB01BC01CD010E944900A1
:103D4000DC01CB0198AB8FA70FC088EC90E09EA759
:103D50008DA78DA59EA50197F1F79EA78DA78FA58D
:103D600098A9019798AB8FA78FA598A9009769F795
:103D700014C069A97AA98BA99CA90E944900DC01F9
:103D8000CB0198AB8FA78FA598A99CA78BA78BA5D4
:103D90009CA50197F1F79CA78BA781E061E041E02A
:103DA0000E94C81980E090E0A0E8BFE38FA398A725
:103DB000A9A7BAA76FA178A589A59AA520E030E0A8
:103DC0004AEF54E40E941F02DC01CB018BA39CA3A9
:103DD000ADA3BEA36BA17CA18DA19EA120E030E08C
:103DE00040E85FE30E94790388232CF481E090E0AF
:103DF0009AA389A33FC06BA17CA18DA19EA120E0C5
:103E00003FEF4FE757E40E94190318164CF56FA1D6
:103E100078A589A59AA520E030E040E251E40E940F
:103E20001F02DC01CB01BC01CD010E944900DC0175
:103E3000CB019AA389A30FC088EC90E098A38F8F41
:103E40008F8D98A10197F1F798A38F8F89A19AA1DF
:103E500001979AA389A389A19AA1009769F714C031
:103E60006BA17CA18DA19EA10E944900DC01CB0128
:103E70009AA389A389A19AA19E8F8D8F8D8D9E8DE6
:103E80000197F1F79E8F8D8F80E069AD0E94921BA4
:103E900080E090E0A0E8BFE3898F9A8FAB8FBC8F62
:103EA000698D7A8D8B8D9C8D20E030E04AEF54E453
:103EB0000E941F02DC01CB018D8B9E8BAF8BB88FD4
:103EC0006D897E898F89988D20E030E040E85FE33E
:103ED0000E94790388232CF481E090E09C8B8B8BEB
:103EE0003FC06D897E898F89988D20E03FEF4FE735
:103EF00057E40E94190318164CF5698D7A8D8B8D45
:103F00009C8D20E030E040E251E40E941F02DC0181
:103F1000CB01BC01CD010E944900DC01CB019C8B8F
:103F20008B8B0FC088EC90E09A8B898B89899A895A
:103F30000197F1F79A8B898B8B899C8901979C8BD0
:103F40008B8B8B899C89009769F714C06D897E895A
:103F50008F89988D0E944900DC01CB019C8B8B8B53
:103F60008B899C89988B8F878F8598890197F1F72A
:103F7000988B8F8781E061E040E00E94C81980E063
:103F800090E0A0E8BFE38B879C87AD87BE876B85F9
:103F90007C858D859E8520E030E04AEF54E40E94C8
:103FA0001F02DC01CB018F839887A987BA876F81B5
:103FB000788589859A8520E030E040E85FE30E94BB
:103FC000790388232CF481E090E09E838D833FC0A9
:103FD0006F81788589859A8520E03FEF4FE757E428
:103FE0000E94190318164CF56B857C858D859E857E
:103FF00020E030E040E251E40E941F02DC01CB01EE
:10400000BC01CD010E944900DC01CB019E838D8360
:104010000FC088EC90E09C838B838B819C810197FF
:10402000F1F79C838B838D819E8101979E838D8385
:104030008D819E81009769F714C06F81788589858D
:104040009A850E944900DC01CB019E838D838D817E
:104050009E819A83898389819A810197F1F79A8356
:104060008983E9960FB6F894DEBF0FBECDBFCF911E
:10407000DF910895DF93CF93CDB7DEB7E9970FB601
:10408000F894DEBF0FBECDBF89AF81E060E041E0B4
:104090000E94C81980E090E0A0E8BFE38DAB9EAB22
:1040A000AFABB8AF6DA97EA98FA998AD20E030E085
:1040B0004AEF54E40E941F02DC01CB0189AB9AABAA
:1040C000ABABBCAB69A97AA98BA99CA920E030E075
:1040D00040E85FE30E94790388232CF481E090E0BC
:1040E00098AB8FA73FC069A97AA98BA99CA920E0AA
:1040F0003FEF4FE757E40E94190318164CF56DA9DE
:104100007EA98FA998AD20E030E040E251E40E9402
:104110001F02DC01CB01BC01CD010E944900DC0182
:10412000CB0198AB8FA70FC088EC90E09EA78DA71E
:104130008DA59EA50197F1F79EA78DA78FA598A99C
:10414000019798AB8FA78FA598A9009769F714C01E
:1041500069A97AA98BA99CA90E944900DC01CB011D
:1041600098AB8FA78FA598A99CA78BA78BA59CA57B
:104170000197F1F79CA78BA781E061E041E00E94E5
:10418000C81980E090E0A0E8BFE38FA398A7A9A793
:10419000BAA76FA178A589A59AA520E030E04AEFDB
:1041A00054E40E941F02DC01CB018BA39CA3ADA3AE
:1041B000BEA36BA17CA18DA19EA120E030E040E8D0
:1041C0005FE30E94790388232CF481E090E09AA3B6
:1041D00089A33FC06BA17CA18DA19EA120E03FEFF0
:1041E0004FE757E40E94190318164CF56FA178A504
:1041F00089A59AA520E030E040E251E40E941F0228
:10420000DC01CB01BC01CD010E944900DC01CB01E6
:104210009AA389A30FC088EC90E098A38F8F8F8D0D
:1042200098A10197F1F798A38F8F89A19AA101977F
:104230009AA389A389A19AA1009769F714C06BA1D9
:104240007CA18DA19EA10E944900DC01CB019AA313
:1042500089A389A19AA19E8F8D8F8D8D9E8D0197A7
:10426000F1F79E8F8D8F80E069AD0E94921B80E0F8
:1042700090E0A0E8BFE3898F9A8FAB8FBC8F698DE8
:104280007A8D8B8D9C8D20E030E04AEF54E40E94C3
:104290001F02DC01CB018D8B9E8BAF8BB88F6D899C
:1042A0007E898F89988D20E030E040E85FE30E94AE
:1042B000790388232CF481E090E09C8B8B8B3FC0AA
:1042C0006D897E898F89988D20E03FEF4FE757E415
:1042D0000E94190318164CF5698D7A8D8B8D9C8D73
:1042E00020E030E040E251E40E941F02DC01CB01FB
:1042F000BC01CD010E944900DC01CB019C8B8B8B62
:104300000FC088EC90E09A8B898B89899A890197F4
:10431000F1F79A8B898B8B899C8901979C8B8B8B6E
:104320008B899C89009769F714C06D897E898F8974
:10433000988D0E944900DC01CB019C8B8B8B8B8973
:104340009C89988B8F878F8598890197F1F7988B37
:104350008F8781E061E040E00E94C81980E090E032
:10436000A0E8BFE38B879C87AD87BE876B857C8584
:104370008D859E8520E030E04AEF54E40E941F02C4
:10438000DC01CB018F839887A987BA876F817885F5
:1043900089859A8520E030E040E85FE30E94790358
:1043A00088232CF481E090E09E838D833FC06F8151
:1043B000788589859A8520E03FEF4FE757E40E9492
:1043C000190318164CF56B857C858D859E8520E03C
:1043D00030E040E251E40E941F02DC01CB01BC014D
:1043E000CD010E944900DC01CB019E838D830FC06B
:1043F00088EC90E09C838B838B819C810197F1F703
:104400009C838B838D819E8101979E838D838D817B
:104410009E81009769F714C06F81788589859A8598
:104420000E944900DC01CB019E838D838D819E819A
:104430009A83898389819A810197F1F79A83898385
:10444000E9960FB6F894DEBF0FBECDBFCF91DF91D6
:104450000895DF93CF9300D00F92CDB7DEB79B8343
:104460008A8319820EC08981282F30E08A819B813E
:10447000FC01E20FF31F80810E943A2089818F5F47
:1044800089838981282F30E08A819B81FC01E20F9A
:10449000F31F8081882339F70F900F900F90CF91F1
:1044A000DF910895DF93CF9300D000D00F92CDB766
:1044B000DEB78A836B838A81282F30E03D832C838B
:1044C0008C819D8181309105C1F02C813D8122300C
:1044D00031052CF48C819D81009761F019C02C81ED
:1044E0003D812230310569F08C819D8183309105B9
:1044F00061F00EC08B8189830BC08B81805C8983C6
:1045000007C08B81805F898303C08B81805B898337
:10451000898180680E944B1E0F900F900F900F9022
:104520000F90CF91DF910895DF93CF9300D000D00B
:10453000CDB7DEB789836A835C834B8389816A81C7
:104540000E9452228B819C810E9429220F900F9001
:104550000F900F90CF91DF910895DF93CF93CDB758
:10456000DEB762970FB6F894DEBF0FBECDBF9A8B51
:10457000898B89899A899E012F5F3F4FB9014AE053
:1045800050E00E946A25CE0101960E94292262967F
:104590000FB6F894DEBF0FBECDBFCF91DF91089567
:1045A000DF93CF93CDB7DEB781E00E944B1ECF9152
:1045B000DF9108951F920F920FB60F9211242F933F
:1045C0003F934F935F936F937F938F939F93AF939B
:1045D000BF93EF93FF93DF93CF93CDB7DEB7809177
:1045E000760190917701009729F0E0917601F091A2
:1045F00077010995CF91DF91FF91EF91BF91AF9135
:104600009F918F917F916F915F914F913F912F91EA
:104610000F900FBE0F901F9018951F920F920FB61C
:104620000F9211242F933F934F935F936F937F9338
:104630008F939F93AF93BF93EF93FF93DF93CF93AA
:10464000CDB7DEB78091760190917701009729F080
:10465000E0917601F09177010995CF91DF91FF917B
:10466000EF91BF91AF919F918F917F916F915F91EA
:104670004F913F912F910F900FBE0F901F90189563
:104680001F920F920FB60F9211242F933F934F93C7
:104690005F936F937F938F939F93AF93BF93EF93AA
:1046A000FF93DF93CF93CDB7DEB7809176019091E2
:1046B0007701009729F0E0917601F0917701099553
:1046C000CF91DF91FF91EF91BF91AF919F918F912A
:1046D0007F916F915F914F913F912F910F900FBEFE
:1046E0000F901F901895DF93CF9300D0CDB7DEB712
:1046F0009A838983EFE4F0E08CE08083AFE4B0E05C
:10470000EFE4F0E08081982F9C7FE981FA81858138
:104710008370892B8C93AEE4B0E0EEE4F0E080810E
:10472000282F277EE981FA818581882F90E08C707F
:104730009070880F991F822B8C93ACE4B0E0E981D4
:10474000FA818081918111969C938E93E981FA81FF
:104750008581882329F4E9E5F0E084E0808312C0B4
:10476000E981FA818581843069F4AAE4B0E0E981C5
:10477000FA818281938111969C938E93E9E5F0E012
:1047800080E18083AEE4B0E0EEE4F0E08081982F39
:10479000987FE981FA818481892B8C930F900F9007
:1047A000CF91DF910895DF93CF93CDB7DEB7EFE4DC
:1047B000F0E01082EEE4F0E01082E9E5F0E0108233
:1047C000CF91DF910895DF93CF9300D0CDB7DEB7BF
:1047D0009A83898389819A81909377018093760166
:1047E0000F900F90CF91DF910895DF93CF9300D07A
:1047F00000D0CDB7DEB79C838B831A821982EBE29F
:10480000F0E082E08083EAE2F0E088E18083EB81FF
:10481000FC818081893021F5AAE2B0E0EAE2F0E093
:10482000808184608C93A0E4B0E0EB81FC81828184
:10483000882F90E0880F991F880F991F880F991F64
:10484000282F2668EB81FC818181882F90E082955A
:104850009295907F9827807F9827822B8C931CC0FD
:10486000A0E4B0E0EB81FC818281882F90E0880F8A
:10487000991F880F991F880F991F282F2668EB8191
:10488000FC818181882F90E082959295907F982776
:10489000807F9827822B8C93EB81FC81838194818C
:1048A000A581B681880F991FAA1FBB1F880F991F6A
:1048B000AA1FBB1F880F991FAA1FBB1F9C01AD0118
:1048C00080E092E1AAE7B0E0BC01CD010E94112591
:1048D000DA01C90101979A838983E0E4F0E08981D4
:1048E0009A81892F99278083E9E2F0E0898180838A
:1048F0000F900F900F900F90CF91DF910895DF935D
:10490000CF930F92CDB7DEB78983EBE2F0E08081E1
:10491000882F90E0807290700097B9F3ECE2F0E09D
:10492000898180830F90CF91DF910895DF93CF939A
:10493000CDB7DEB7EBE2F0E080818823DCF7ECE274
:10494000F0E08081CF91DF910895DF93CF9300D085
:104950000F92CDB7DEB79B838A8319820EC08981FF
:10496000282F30E08A819B81FC01E20FF31F8081B8
:104970000E947F2489818F5F89838981282F30E07D
:104980008A819B81FC01E20FF31F8081882339F724
:104990000F900F900F90CF91DF9108950F931F9379
:1049A000DF93CF9300D00F92CDB7DEB79B838A837E
:1049B00019828981282F30E08A819B818C01020F26
:1049C000131F0E949624F80180830FC089818F5F96
:1049D00089838981282F30E08A819B818C01020F95
:1049E000131F0E949624F80180838981282F30E0CC
:1049F0008A819B81FC01E20FF31F8081833231F7B2
:104A00008981282F30E08A819B81FC01E20FF31F0E
:104A100010820F900F900F90CF91DF911F910F9107
:104A20000895A1E21A2EAA1BBB1BFD010DC0AA1FEF
:104A3000BB1FEE1FFF1FA217B307E407F50720F007
:104A4000A21BB30BE40BF50B661F771F881F991F82
:104A50001A9469F760957095809590959B01AC01CB
:104A6000BD01CF0108952F923F924F925F926F92B6
:104A70007F928F929F92AF92BF92CF92DF92EF92EE
:104A8000FF920F931F93CF93DF93CDB7DEB7CA1B6F
:104A9000DB0B0FB6F894DEBF0FBECDBF09942A889A
:104AA000398848885F846E847D848C849B84AA8442
:104AB000B984C884DF80EE80FD800C811B81AA81CF
:104AC000B981CE0FD11D0FB6F894DEBF0FBECDBF9A
:104AD000ED010895FB019F01E8944230C4F0453296
:104AE000B4F44A3029F497FB1EF4909581959F4FBA
:104AF000642F77270E949B25805D8A330CF0895DA7
:104B00008193CB010097A1F716F45DE251931082D7
:104B1000C9010C948B25DC01FC01672F719177236F
:104B2000E1F7329704C07C916D9370836291AE1768
:104B3000BF07C8F30895AA1BBB1B51E107C0AA1FFA
:104B4000BB1FA617B70710F0A61BB70B881F991F2E
:104B50005A95A9F780959095BC01CD010895F894D8
:024B6000FFCF85
:104B6200504C5A20656E7465722050617373203AFE
:104B7200002A00504C5A2052652D656E74657220D1
:104B82005468650053616D652050617373203A006B
:104B92004E4557205041535320495320534554000A
:104BA2004641494C454420504C5A205452590041E8
:104BB2004741494E00504C5A20656E746572205927
:104BC2004F55520050617373203A0057524F4E476F
:104BD2002050415353574F524400504C5A20545284
:104BE2005920414741494E002B203A204F50454E13
:104BF20020444F4F52002D203A204348414E474512
:104C0200205041535300446F6F7220556E6C6F6396
:104C12006B696E6700446F6F7220697320756E4C0A
:104C22006F636B656400446F6F72204C6F636B69D6
:104C32006E6700446F6F72206973204C6F636B65FF
:104C4200640053595354454D204953204C4F434B14
:104C5200454400666F72203A002000000000000008
:104C6200000000010000841E0504030000802500EE
:024C7200000040
:00000001FF
